:020000042000DA
:1000000000200820A50100201B0100201D01002068
:100010001101002011010020110100201101002018
:100020001901002019010020190100205D1900208C
:1000300011010020190100202101002023010020CE
:1000400011010020110100201101002011010020E8
:1000500011010020110100201101002011010020D8
:1000600011010020110100201101002011010020C8
:1000700011010020110100201101002011010020B8
:1000800011010020110100201101002011010020A8
:100090001101002011010020110100201101002098
:1000A0001101002011010020110100201101002088
:1000B0001101002011010020110100201101002078
:1000C0001101002011010020110100201101002068
:1000D0001101002011010020110100201101002058
:1000E0001101002011010020110100201101002048
:1000F0001101002011010020110100201101002038
:100100001101002011010020110100201101002027
:10011000EFF30580103800BE00BE00BE00BE00BE7A
:1001200000BE00BE06005250ABB3605360390020E1
:1001300006005250861C03027C39002006005250F3
:100140005422A29D88390020F2EB8871843B002064
:10015000983B0020D001002090A31AE7D3DEFFFFD8
:10016000420121100302000000000020FF030000F4
:1001700000000000793512AB20485FF44041016077
:1001800030EE10F704D440EC800740EC810740BF0C
:10019000002080F30A881A481A49086006C881F3CB
:1001A000088810474FF05040006810B14FF0000031
:1001B000F2E71549154A002000E001C19142FCD147
:1001C00013498847134988471349884700BEFDE70C
:1001D000983B0020983B0020283C0020000008208D
:1001E000000008200000082000100820001008204F
:1001F00000100820000000007047000088ED00E0BB
:100200000000002008ED00E0283C0020DCBE0020BB
:100210002126002059190020192600204FF05041B6
:100220002DE9F0411F460B68044616460025984606
:1002300008E0C3E88F5F82F310883046394601F04A
:100240004BFFE8B92368EFF3108272B6D3E8CF0F03
:1002500001210028FAD1C3E8401F0028F6D1BFF3DE
:100260005F8F94F9041023680029E2DA002184F8F2
:100270000480C3E88F1F82F310880120BDE8F0815D
:100280000020BDE8F08100BF10B50168EFF3108ECB
:1002900072B6D1E8CFCF0124BCF1000FF9D1C1E88B
:1002A0004C4FBCF1000FF4D1BFF35F8F90F904C045
:1002B0000468BCF1000F10DB0021C4E88F1F8EF32F
:1002C00010884FF0504494F90040644501D108462D
:1002D00010BDBDE81040FFF7A1BF4FF050421268BB
:1002E00000230271C4E88F3F8EF31088012010BDF7
:1002F0000368EFF3108272B6D3E8CFCF0121BCF1CF
:10030000000FF9D1C3E84C1FBCF1000FF4D1BFF3CB
:100310005F8F4FF0FF0C0023016880F804C0C1E834
:100320008F3F82F3108840BF704700BF4FF0E0233B
:100330004FF0FF3200211961C3F88021C3F88022F9
:10034000C3F88421C3F88422C3F88821C3F8882223
:10035000C3F88C21C3F88C22704700BF30B500234E
:100360004FF0010C05240C490C4ADFF834E00CFA7C
:1003700003F030F0A04503F1010306D010EA0E0FA0
:100380000CBF62206A2010600C60202B02F1040276
:1003900001F10801EBD130BD04800240048003402C
:1003A0000000C0A84FF050434FF0007C47F230519E
:1003B0000748084AC3F818C018629A635A68002AA6
:1003C000FCDA5A68002AFCDB0139F7D1704700BF1C
:1003D000FFFF3F0DFFFF3F0F30B54FF05042044687
:1003E0005368002BFCDB4FF050425368002BFCDAC3
:1003F0004FF05040136983F0E26383F4406323F0CD
:10040000784323F4400393624368002BFCDB00290C
:100410003AD04FF0000C4FF050434FF0806501F19F
:10042000FF3E54F8040BC0F30B21000D5A68002A5C
:10043000FCDA1A694A40C2F30B029A621D625A68DA
:10044000002AFCDB0CF1010C48B1411E5A68002A5D
:10045000FCDA5A68002AFCDB0139F7D28444BEF189
:10046000010EDED24FF050425368002BFCDA4FF001
:10047000806393611369604683F0806323F078435F
:1004800023F44003936230BD8C46EBE750B14FF04C
:100490005043411E5A68002AFCDA5A68002AFCDBE5
:1004A0000139F7D2704700BF4FF05042000200F40C
:1004B0007060C9B2084340F044705368002BFCDA06
:1004C0004FF050411369434023F0784323F4400335
:1004D00093624B68002BFCDB4FF050425368002BBB
:1004E000FCDA1169044B81F0007104480B409362FF
:1004F000036802330360704700FF3F0788BE002097
:100500004FF05042FF21000200F4706300B543F049
:10051000E26011645368002BFCDA4FF0504113691C
:10052000DFF848C0434003EA0C0CC2F828C04B680F
:10053000002BFCDB4FF0504358680028FCDA4FF0EA
:10054000FF0E4FF05042196981F0007C07490CEA18
:1005500001019962C3F838E05368002BFCDB044AC0
:10056000C0B213680233136000BD00BF00FF3F0735
:1005700088BE0020014B1960704700BF74BE002088
:100580000F4B1868B0F5005F14D2002AB8BFFF32D5
:1005900001EB2222090200F1010C82F30C0289B264
:1005A000C3F800C041EA0251064B41F4C02143F8B0
:1005B00020107047044A136801331360704700BF6E
:1005C00038BE0020383E00203CBE0020012906D164
:1005D0004FF0000C124802701248C0F800C0DFF85B
:1005E00050C0DCF80000B0F5005F13D200B540F653
:1005F000FF7E1B0A734528BF7346120292B242EA7D
:100600000352094B42EA014243F820200130CCF862
:10061000000000BD054A136801331360704700BF36
:10062000D9BE0020A43B0020383E00203CBE002064
:1006300038BE0020DFF888C0DCF80030B3F5005F7A
:1006400028D210B51B4A0C4692F800E01A4A2EF048
:100650000701084340F00101090242F82310591C28
:10066000B1F5005F40F08000CCF8001019D0000216
:1006700040EA045042F82100981CB0F5005FCCF825
:10068000000014D003334FEA0E21CCF8003042F8BA
:10069000201010BD094A1368013301330133136080
:1006A0007047064A136801330133136010BD034AD3
:1006B0001368F9E7A13B0020383E00203CBE002033
:1006C00038BE0020F0B5424E424C33680246994293
:1006D000257883B06DD0CCBFCB1A5B1AB3FA83F305
:1006E000BB20C3F1200300FB03F3B3F5C87F5ED347
:1006F000B3F5C86F60D23848A0FB03035B095FFA0B
:1007000081FCAC45354F316002D13868002857D0A4
:100710000020334E3860306884F800C0B0F5005FC8
:1007200040D209022F4D89B241F4803145F82010A2
:10073000013030606546194600200192FFF77AFFCC
:10074000019AD3B2AB42316802D13868002835D063
:1007500023700023B1F5005F3B601BD212022148D9
:1007600092B24B1C42F4710240F821203360B3F581
:10077000005F27D25A1C1B491B48B2F5005F32604C
:1007800041F8230021D019480233336041F8220098
:1007900003B0F0BD164A136801330133013313600F
:1007A00003B0F0BD1248016801310160C2E70423C3
:1007B000A5E70A4F0A4EC4E70F23A0E70B46D6E78A
:1007C000074EB8E70A4A1368E7E7094A1368E5E7FE
:1007D00074BE0020D9BE00201F85EB51A43B002031
:1007E00038BE0020383E002000FF04000000F51055
:1007F0003CBE00204FF0810CCC2110B50024424BB0
:10080000424A83F800C0424B424819701368047092
:10081000B3F5005F59D24FF48034581C3E49B0F50F
:10082000005F106041F823406AD09C1CDFF804C1CF
:10083000B4F5005F146041F820C05ED04FF4014C65
:10084000D81CB0F5005F106041F824C052D01C1DC8
:10085000DFF8E4C0B4F5005F146041F820C046D072
:10086000581DDFF8D8C0B0F5005F106041F824C013
:100870003AD04FF438240633136041F82040274B18
:10088000196861B1002011681860B1F5005F26D2C7
:100890004FF48030204B4C1C146043F821000F2192
:1008A0000220FFF7C7FE0F210020FFF7C3FE0F2134
:1008B0000420FFF7BFFE0023194C1A481A491B4AAF
:1008C000236003600B60136010BD19490B6801338E
:1008D000013301330133013301330B60CFE7144A95
:1008E000136801331360DAE711490B68F4E7104924
:1008F0000B68F0E70E490B68ECE70D490B68E8E779
:100900000B490B68E4E700BFA13B002038BE002084
:10091000A03B0020D9BE0020383E0020A43B002090
:1009200074BE002078BE00205CBE002060BE0020A7
:100930003CBE002000FF0300009F020000CC0C0022
:10094000704700BF38B50025064C2560FFF752FF01
:1009500005482168FFF740FD2268044B2560C3E984
:10096000002038BD38BE0020383E00208CBE00205C
:100970004FF00043012010B40349044C044A2360A3
:100980000860136010BC7047A43B002074BE0020B8
:1009900078BE002030B5494B494A18781168494C57
:1009A00010B9206800287AD00020B1F5005F1870D7
:1009B00020603CD344490B680133013301330133D8
:1009C0000B60DFF818E1DFF818C1DEF80010DCF882
:1009D00000003E4C0143237801D1990726D41168C9
:1009E000B1F5005F51D23A480068800800F12D054A
:1009F00003F0FD00000243F0020340EA05502370BB
:100A0000344C40F4402044F82100481CB0F5005F0D
:100A1000106049D01B02023143F44023116044F8B6
:100A200020300023CEF80030CCF8003030BD4FF439
:100A3000803428484B1C136040F82140B3F5005F18
:100A40002FD2254903F1010C0C78224804F0F8015B
:100A500041F0030E4FEA0E2EBCF5005FC2F800C055
:100A600040F823E041F0820121D0090241F48001E5
:100A700040F82C10991CB1F5005F11601AD00333B7
:100A80002402136040F821409BE70F4943F0020322
:100A900023700B6801330B6001330B60C1E70B4619
:100AA000CCE709490B6888E707490B68F4E7064972
:100AB0000B6883E704490B6881E700BFD9BE0020BB
:100AC00038BE0020A43B00203CBE0020A03B0020FC
:100AD0009C3B0020383E0020A13B00205CBE002053
:100AE00060BE00203D4A80F3070013683C499842ED
:100AF000086065D0CCBFC31A1B1AB3FA83F3BB21BD
:100B0000C3F1200301FB03F3B3F5C87F30B555D320
:100B1000B3F5C86F55D23349A1FB03135B091060CD
:100B2000314ADFF8D8C01478C1B28C42DCF800E05A
:100B30002E4C02D12568002D45D011700022BEF543
:100B4000005F226032D22A4900020EF1010240F415
:100B50008030CCF8002041F82E00B2F5005F34D28E
:100B60002449234891F800E00EF0F80141F0050413
:100B7000240240F82240541CB4F5005F41F0840187
:100B8000CCF8004027D0090241EA035140F8241074
:100B9000911CB1F5005FCCF8001019D003324FEA78
:100BA0000E23CCF8002040F8213030BD124A1368E3
:100BB0000133013301330133136030BD0423AEE749
:100BC00070470F23ABE77246C7E70B4A1368F0E79D
:100BD000094A1368EFE7084A1368EBE778BE00207C
:100BE0007CBE00201F85EB51D9BE0020A43B002015
:100BF000383E0020A13B00203CBE002038BE002033
:100C0000F0B5254A254C136893B00344136023685C
:100C10000CAD5A1806AB009305AB2260002404AA61
:100C200001F076FFAE461E4F1E4A1F4B3968CDE9D4
:100C30000D231E4E0C9410960391EC600DF11C0CCC
:100C4000BEE80F00ACE80F000399CCF800609942B1
:100C5000C8BF3C684FF04006C8BF24020F944FF451
:100C600060670024124B00951B6804991B021093C7
:100C700007A8DDE90523CDE90C670E94119401F076
:100C800004FF0C4BD3E904120131196106990A449F
:100C90005A6113B0F0BD00BF5CBE002060BE0020F2
:100CA00084BE0020CD0500208105002075050020B0
:100CB000983B00208CBE0020F0B5254A254C1368D7
:100CC00093B00344136023680CAD5A1806AB00932D
:100CD00005AB2260002404AA01F01AFFAE461E4FA5
:100CE0001E4A1F4B3968CDE90D231E4E0C941096F9
:100CF0000391EC600DF11C0CBEE80F00ACE80F0096
:100D00000399CCF800609942C8BF3C684FF0400698
:100D1000C8BF24020F944FF460670024124B009563
:100D20001B6804991B02109307A8DDE90523CDE990
:100D30000C670E94119401F07FFE0C4B99685A6970
:100D40000131996006990A445A6113B0F0BD00BFA1
:100D50005CBE002060BE002084BE0020CD050020C7
:100D60008105002075050020983B00208CBE0020E6
:100D7000054A064B12681B68801AC91A50EA01031B
:100D800001D0FFF73DBF70475CBE002060BE002071
:100D9000002370B5304A314D314CC2E904339360C1
:100DA0002B602360FFF726FD2E4B2F481A6803683F
:100DB0009A4233D0CCBFD31A9B1AB3FA83F3BB2128
:100DC000C3F1200301FB03F3B3F5C87F40D3B3F5B0
:100DD000C86F3FD22549A1FB03135909244B026078
:100DE00093F800C0D0B28445DFF890C002D1DCF89F
:100DF000006086B118700023CCF800302B68B3F582
:100E0000005F21D212021B4892B242F4803240F8B5
:100E1000232001332B600420FFF70CFC16492A68BD
:100E20000B78B2F5005F43F002030B7008D2114952
:100E30001B02501C43F44023286041F8223070BD4F
:100E400023680133236070BD236801332360E2E728
:100E50000421C3E70F21C1E78CBE002038BE00206B
:100E60003CBE00207CBE002078BE00201F85EB51D8
:100E7000D9BE0020383E0020A03B0020A43B00202B
:100E80002DE9F047DFF884A1554E9AF800503268FA
:100E900005F0DF03B2F5005F8AF8003080F0818052
:100EA00050491B0243F4402341F822304E4F013297
:100EB000326001204FF000427F214C4B4C4C1860B7
:100EC0004C4BDFF84C911A60E369D9F80080034479
:100ED000E361494B08461A60FFF7F4FB326805F0FE
:100EE000DD05B2F5005F65D23E4B290241F47C017D
:100EF00043F82210511C45F00205B1F5005F08BF10
:100F00003B688AF8005031605BD02D02023245F414
:100F10007C05326043F821506FF07F010846FFF7EF
:100F2000D1FBC9F80080FFF735FD9AF80030316831
:100F300003F0FD03B1F5005F8AF8003036D24FEAC6
:100F4000980808F12D081B02264A43EA085343F487
:100F5000402342F82130013131600025274B2148E0
:100F60001D60274B1D60FFF737FA47F22F51254AC6
:100F700088421368606003F1010313603B68A26854
:100F8000A3613368356023602369C4E90923636979
:100F9000E36219D9E3680133E3601B4B1860BDE8D5
:100FA000F087114F3B6801333B6082E73B680133B8
:100FB0003B60D2E73B6845F0020501338AF80050F8
:100FC0003B6001333B60A7E7C0F5EA403030FFF7F4
:100FD0005DFA47F230500C4B1860BDE8F08700BF57
:100FE00038BE0020383E00203CBE0020A43B00203C
:100FF0008CBE002074BE002078BE00205CBE0020A5
:1010000060BE002044BE002040BE0020A03B002067
:101010009C3B0020014B1868704700BF40BE002079
:1010200070B5FF2144000320FFF73EFA44F0810130
:101030000020FFF739FA00210120FFF735FA44F0CC
:1010400080010020FFF730FAA020FFF71FFA44F0DC
:1010500081010020FFF728FA08268025002409E0F6
:101060006D08013E44EA050316D0DCB2214601209A
:10107000FFF71AFA0A20FFF709FA0020FFF740FAF3
:101080008306EDD46C4021460120FFF70DFA6D0870
:10109000013E44EA0503E8D130468121FFF704FA16
:1010A00060B270BD38B5FF2144000320FFF7FCF9A2
:1010B00044F081010020FFF7F7F900210120FFF73C
:1010C000F3F944F080010020FFF7EEF9A020FFF7CC
:1010D000DDF944F081010020FFF7E6F90020FFF779
:1010E0000FFA10F0200416D0402101252024012001
:1010F000FFF7DAF90A20FFF7C9F90020FFF700FA35
:1011000000F0200300209C4218BF05468121FFF714
:10111000CBF9284638BDC0214FF0FF35E7E700BFC7
:10112000014B1860704700BF2C3E002010B5FF2116
:101130000320FFF7B9F90E210120FFF7B5F9992136
:101140000020FFF7B1F981210020FFF7ADF9002160
:101150000320FFF7A9F989210020FFF7A5F9012055
:10116000FFF7CEF9044681210020FFF79DF9FF210A
:101170000320FFF799F981210020FFF795F9204618
:1011800010BD00BF38B50F4B186888B10020FFF7BD
:1011900047FF05460120FFF743FF04462404812151
:1011A000002004F47F04FFF77FF944EA056038BDAE
:1011B000FFF778FFC0EBC0150120FFF773FFC0EB0E
:1011C000C014EBE72C3E002038B505460C46032042
:1011D000FF21FFF769F905F00F010120FFF764F91E
:1011E00099210020FFF760F981210020FFF75CF9C9
:1011F000E1B20120FFF758F991210020FFF754F9DF
:1012000081210020FFF750F9BDE8384081210020FE
:10121000FFF74AB910B50446FF210320FFF744F950
:1012200004F00F010120FFF73FF999210020FFF79B
:101230003BF981210020FFF737F900210320FFF758
:1012400033F989210020FFF72FF90120FFF758F922
:10125000044681210020FFF727F9FF210320FFF733
:1012600023F981210020FFF71FF9204610BD00BFA0
:1012700000234FF05041214802E00133834239D02E
:101280004A68002AF9DB4FF050411C4802E0013364
:1012900083422FD04A68002AF9DA194A30B55268D9
:1012A00080244FF050411546164802E00133834236
:1012B00022D84A68002AF9DB4FF0504CDFF844E0AE
:1012C00002E00133734517D8DCF80420002AF8DA6D
:1012D000621E1446EDD10A4B0B4A5B685B1B03EBA5
:1012E0004303180AB3F5206F36BF9623034618460A
:1012F000136030BD00207047002030BD01C2EB0BF1
:10130000001000E000C2EB0BA83B0020F0B54FF04E
:10131000E0250126D5F8FC3DDFF844E043F080737A
:10132000C5F8FC3DDEF800304FF050423343CEF8B4
:1013300000304FF0804C05276223064C06480749D1
:10134000E367C0F8F470C2F820C0C2F838C00E607D
:10135000F0BD00BF008003400080024064BE00205A
:10136000001000E0244B1B68002B44D02DE9F04313
:101370004FF0170C4FF0504E4FF080441F4B42EA95
:101380000022D3F8008042EA014608EB88031C4A99
:10139000C8EB4810DF001D0108EB8000A2FB0737F7
:1013A000A2FB0535A2FB0020164A7F096D09400902
:1013B00026FA0CF313F0010F0CBFB946A946516889
:1013C000CEF8184053685B1A9945FBD8CEF82040F8
:1013D00053685B1A9842FBD8BCF1010CE8D24FF479
:1013E000967303FB08F85168064A53685B1A9845E0
:1013F000FBD8BDE8F083704764BE0020A83B002006
:101400001F85EB51001000E0013804281DD8DFE8EB
:1014100000F0080D12170300002208211820FFF722
:10142000A1BF002118220846FFF79CBF0022202000
:101430001146FFF797BF002210211820FFF792BF37
:10144000002210211046FFF78DBF002211461046E2
:10145000FFF788BF2DE9F04F9A46894603EB430317
:1014600085B043F31E03BAF1000F07460E99A9EBAE
:10147000030965DDCAEBCA0303930029D8BF6421C1
:10148000531E0E911946FF32029211F8013F5A067F
:1014900048D0A3F16102192A47D8203B2B4A203BB0
:1014A000D65CCEB32A4A019132F81320294BD34699
:1014B00002EB0308FFF76EFA0E98FFF713FB002507
:1014C00000244FF0000A07E00AF1030AFFF7F4FBDB
:1014D000B24508F103081DDA2046294698F8014074
:1014E00098F802500BFB04F40BFB05F598F800206C
:1014F00007EB640409EB6505012AA4EB0000A5EBEA
:101500000101E1D10AF1030AFFF77AFBB24508F1C4
:101510000308E1DBDA460199039B07EB6307029BB3
:101520008B42B2D105B0BDE8F08FA3F120023A2A78
:10153000B4D9039B07EB6307029B8B42A5D1F1E76C
:1015400015234FF0030A039397E700BFA03500204F
:10155000DC3500205436002070B10A4B1A6862B99D
:10156000094A4FF0010C00211060C3F800C0074A7F
:10157000074B0830106019607047034A11688142B8
:10158000EFD1F9E750BE002048BE002058BE002031
:101590004CBE002010B500240B4B0C4A21460820FD
:1015A0001C601460FFF710FE21460920FFF70CFEB7
:1015B00021460A20FFF708FE3F21054B072019703E
:1015C000BDE81040FFF700BE58BE002050BE00200E
:1015D000AC3B002050B14FF0010C0022044B043012
:1015E00018600449044BC1F800C01A60704700BF7E
:1015F00070BE002068BE00206CBE0020F8B54C4BC9
:101600001A683AB34B4A156825B34B4A116800294A
:1016100057D04A490A68002A60DC6A781746002ACF
:1016200065D0FF2A79D02C4605EB4206A078E178F8
:10163000072849D00234FFF7C7FDA642F6D17E1E27
:10164000F6B204353B4905EB46020A6015F8163040
:101650003A4A13603A4C23680BB33A4B1D68F5B114
:10166000394A1368002B1BDC6B781F46002B38D0DF
:101670002C4605EB4306A078E178072813D0023406
:10168000FFF7A2FDA642F6D17B1EDBB204352D4941
:1016900005EB43020A6015F813302B4A1360F8BDBE
:1016A000013B1360F8BD294A01F02401137802348C
:1016B00003F09B0319431170FFF786FDB442DAD1A2
:1016C000E2E701231360C5E7204B01F0BF010234BC
:1016D0001970FFF779FDB442A8D1B0E7013A0A606A
:1016E000B8E719460A20FFF76FFD2760F8BD1A60BA
:1016F000104B114608201A60FFF766FD3946092095
:10170000FFF762FD39460A20FFF75EFD3F210F4BD0
:1017100007201970FFF758FD9CE70D4B1B685A68AE
:1017200099189B5C034A1160044A136092E700BF5A
:1017300050BE002058BE002054BE00204CBE0020E9
:1017400068BE002070BE00206CBE0020AC3B0020B4
:1017500048BE002008B5FEF7E9FDFEF7FFFDFFF7E4
:10176000D5FD0120FFF750FEFFF782FD18B90220DA
:10177000FFF74AFEFEE70320FFF746FEFEF712FEE4
:10178000FFF7E0F80120FFF7DBF80120FFF7C8FCC6
:10179000FFF700FF01F0A2F90346084A07214FF4C2
:1017A0007A70136001F0A0F9054B1860FFF7F0FAAA
:1017B000BDE808400420FFF727BE00BFD0BE0020D0
:1017C000D4BE0020024600B58369516813F8023C7C
:1017D000006885B01A2B1ED8DFE803F04D26218162
:1017E00076180E7B9D1D1DAAA4726863571D1D1DD2
:1017F0001D5286981D1D8B0000210820FFF7E4FC78
:1018000000210920FFF7E0FC00210A2005B05DF867
:1018100004EBFFF7D9BC0023136005B000BD05B091
:101820005DF804EBFFF75EB9FFF72AFBFFF77EFCDC
:10183000434B1870FFF7A6FC424B1860FFF798F86F
:10184000FFF7E8FB404B1A68104447F22F529042D2
:1018500018600BD9A0F5EA4030381860FFF7CEFECB
:1018600047F22F52384B18689042F3D805B05DF814
:1018700004EBFFF78DBA05B05DF804EBFFF78AB80B
:1018800005B05DF804EBFFF767BED2E90223C3F3AE
:10189000072CCDF800C0DBB249B240B2FFF7DAFD49
:1018A000BBE705B05DF804EBFFF762BA244B19788B
:1018B0000B039BB243EA111343F47F631360ACE75D
:1018C000204B1B681360A8E705B05DF804EBFFF739
:1018D000F3B91B4B1B7883F0FF0313609DE705B042
:1018E0005DF804EBFFF78CB905B05DF804EBFFF78A
:1018F00051BE9268002A90D04FF05F0C012349B28C
:1019000040B2CDF800C0FFF7A5FD86E705B05DF851
:1019100004EBFFF75FBE00F00F0005B05DF804EBCD
:10192000FEF7C2BD0392FFF775FC039A106074E7DF
:1019300000F00F000392FEF7E3FD039A10606CE7DE
:10194000D8BE0020343E0020303E0020684610B54E
:10195000FFF738FF10BD000001F064BDFFF7F6BFD0
:101960000FB400B5084883B000F088FF049B3BB17A
:1019700005A91846019100F035FE044800F07EFFED
:10198000012000F047FE00BF143900202439002058
:1019900070B51646EFF3108472B6DFF848E0DEE863
:1019A000CF2F0123002AFAD1CEE8423F002AF6D1F8
:1019B000BFF35F8F012301F0070CCA0803FA0CF391
:1019C00010F802C01CEA030508D14CEA030C00F829
:1019D00002C0CEE88F5F84F3108870BD3046FFF7F9
:1019E000BFFF00BFBF3D0020044A1078431CDBB29C
:1019F000182B28BF10231370704700BFAD3B002089
:101A00004FF0E022936843F000539360704700BFAB
:101A10000021044B03F12002C3E88F1F01339342DE
:101A2000FAD17047B43D00204FF0E0234FF08032F0
:101A3000C3F80024C3F80424C3F80824C3F80C2412
:101A4000C3F81024C3F81424C3F81824C3F81C24C2
:101A5000C3F82024C3F82424C3F82824C3F82C2472
:101A6000C3F8302462B67047012300F01F02934090
:101A7000400941B1800000F1604000F56140C0F8CC
:101A8000803103607047024A203042F820307047AE
:101A900000E100E010B582B0EFF3108472B6164B8F
:101AA000D3E8CFCF0122BCF1000FF9D1C3E84C2F0E
:101AB000BCF1000FF4D1BFF35F8F104A1030926871
:101AC000DFF83CC052F82020624508D0914206D091
:101AD000CDE9000100F0A4FC0199074B0098074AEA
:101AE000926842F82010BFF35F8F0022C3E88F2F67
:101AF00084F3108802B010BDBD3D002000ED00E071
:101B000011010020014B0B4403607047B43D0020DD
:101B100070B5104C104DAC420ED2FF26236863B155
:101B2000FFF762FF01462046FFF7ECFFA680BFF3F8
:101B30005F8F0834AC42F1D370BDFFF755FF01460B
:101B40002046FFF7DFFF2671BFF35F8F0834AC42FA
:101B5000E4D370BDDC3B0020EC3B00200D4B1A6849
:101B6000EFF3108172B6D2E8CFCF0120BCF1000FA5
:101B7000F9D1C2E84C0FBCF1000FF4D1BFF35F8F75
:101B800000221B68C3E88F2F81F3108840BF00201C
:101B90000021704780BE00202DE9F04F2DED028B13
:101BA00085B0EFF30583DBB2103B9A0818BF012222
:101BB0004FF0010103F0030B18BFA94CA94B08BF5C
:101BC000A94C0BEB820253F8225001FA0BF204F5F8
:101BD00041539FEDA18B02925A602FE0AB8819040C
:101BE00040F19480AB79002B40F0DE80B5F90860BD
:101BF000002EC0F21C816B6906EB460603EBC603A0
:101C0000D3E90267B7F1FF3F08BFB6F1FF3F0ED03F
:101C100004EB8B01A36A0A69D21AF31A934205D323
:101C20000123226A03FA0BF3134200D10E6120460E
:101C300000F0E0FAB042B941C0F2F980B5F90860AD
:101C4000029B002EE363C9DBD5F8149006EB460A2D
:101C500009EBCA07BB682046D7F80C80019300F057
:101C6000C9FA019B984271EB0801B7DBB8F1000F8C
:101C7000C0F2C080D7E904317C4A934200F0F8807A
:101C80007A88B5F9080092B242EA004098470246C5
:101C90000B4652EA030100F0AD80002B80F2CD80AC
:101CA0000199B1EB020E68EB030839F93A30C7E944
:101CB00002E8002B92DB686903EB430200EBC202EF
:101CC000D2E90271BE4578EB010C4FEA430285DB95
:101CD000AC462CF8083F06E003EB430100EBC101E2
:101CE0005A00D1E90271BE4578EB01011A4405DBC7
:101CF00030F9323000EBC20C002BEDDA29F83A3023
:101D0000ACF80060AB8819043FF56CAF2B69EFF3BA
:101D1000108272B6D3E8CF0F01210028FAD1C3E8B0
:101D2000401F0028F6D1BFF35F8F4FF6FF76A888DB
:101D30000023296900B2AE80C1E88F3F82F310888A
:101D40009842FFF64FAF0746A1466E6905F10808B5
:101D5000B5F9083007EB470E002BC44606EBCE0260
:101D600015DBD2E90240AA46019704E036F9353086
:101D70009446002B09DB03EB430506EBC502D2E9D1
:101D80000271BC4270EB0101F0DA5546019FACF8DC
:101D9000007036F93E7026F83E30002FD8DAAB7965
:101DA0004C46002B3FF422AF0023AB71B5F908601D
:101DB000721C33463BD0686905F1080E03E08E467D
:101DC0005A1C3FF415AF03EB430200EBC2014F88EE
:101DD0009C463F0430F93230F1D5664581ED028BE7
:101DE000EED0AEF800302989664620F83210A5F80A
:101DF00008C0E5E739F83A302B812B69EFF3108200
:101E000072B6D3E8CF0F01210028FAD1C3E8401FF2
:101E10000028F6D1BFF35F8F6B88296929F83A3023
:101E200000236E80C1E88F3F82F31088D6E640BF62
:101E300005B0BDEC028BBDE8F08F20460393019204
:101E400000F0D8F9019A039B10EB020E43EB010856
:101E50002BE700BFAFF30080FFFFFFFFFFFFFFFF97
:101E600000800B400C3E002000000B40991B00201E
:101E700008460B69039198470028BBD00399D1E924
:101E8000002306E738B5384B1C692CB1BDE8384053
:101E90000A213648FFF736BE0321354800F098F98D
:101EA000334D314BDD60FFF79FFD324A4FF0504E0E
:101EB000024403202C4B4FF00F0C18701A61DEF80F
:101EC00000204FF6FF715A705A69A3F802C01483BC
:101ED0004FF00204A2F848404FF00404A2F8784002
:101EE0004FF00504A2F890404FF00604A2F8A84075
:101EF0004FF00704A2F8C0404FF00904A2F8F040E8
:101F00004FF00A04A2F808414FF00B04A2F8204158
:101F10004FF00C04A2F838414FF0010414864FF042
:101F20000804A2F8D840144C4FF00D0E4FF00E0CE0
:101F30009C6008249980A2F850E1A2F868C1A2F838
:101F4000600011800D4A2C620D49D360FFF7A2FD9D
:101F500001210320FFF788FD0A4B0A211C64034876
:101F6000BDE83840FFF7CEBDB03B002080BE00206A
:101F700000000B40B43D0020FFFF10000C3E00208D
:101F8000991B002000200B40F0B516461F46026941
:101F90000346EFF3108072B6D2E8CF4F0121002C38
:101FA000FAD1C2E8441F002CF6D1BFF35F8FB3F91A
:101FB00002101D69002945DBD3F814E001EB410252
:101FC0003EF832400EEBC20C5C800024C5E88F4F17
:101FD00080F3108805983546CCF8100006983E46E8
:101FE000CCF81400BCF80200CCE902560130C0F372
:101FF0000E00012838BF0120ACF8020040EA014081
:10200000D3F810C0EFF3108572B6DCE8CF7F01265D
:10201000002FFAD1CCE8476F002FF6D1BFF35F8FC6
:10202000B3F804C02EF832C099801A69C2E88F4F05
:1020300085F3108801211C78DA68A14002F501536C
:102040005960F0BD0023C5E88F3F80F310884FF042
:10205000FF30F0BD03464089B0EB214F3ADD5869AF
:102060000A1402EB420210B5D3F810C000EBC20014
:10207000EFF3108E72B6DCE8CF4F0122002CFAD1BC
:10208000CCE8442F002CF6D1BFF35F8F428889B291
:1020900092B28A4207D000221B69C3E88F2F8EF3C9
:1020A0001088002010BD6FEA42426FEA524242801F
:1020B0000121002218699971C0E88F2F8EF31088D2
:1020C00093F800C0DA68084602F5015301FA0CF1F2
:1020D000596010BD00207047EFF30582D2B282B183
:1020E000384B5A6A8A4202D200221046704714BF07
:1020F000012200229B6A834228BF42F0010210465F
:10210000704770B584B003922F4A0646D36815789D
:1021100018460C46029300F06DF8029B05F1040C82
:1021200053F82CC0039AACEB000C301A64EB01019D
:10213000604571F100010FDB20BF224B596AA142BB
:1021400007D314BF012200229B6AB34228BF42F08A
:102150000102104604B070BD029200F053F88642AE
:1021600064EB01010029029A1BDB18492346CDE9E3
:10217000001215483246FFF707FF011E11DD114B13
:102180005A6AA2421CD39B6AB34217D30E48FFF788
:1021900061FF0C4B5A6AA242D3D20022104604B00F
:1021A00070BD084B5A6AA242F7D3121B18BF012216
:1021B0009B6AB34228BF42F00102CAE7A242E5D1BE
:1021C00020BFE3E700000B40B03B00205D1B002078
:1021D00010B4054B054C064AA04214BF1846581CC3
:1021E00010BCFFF7D5BB00BFD43D002000800B40E2
:1021F000283900200346416A0A46986A596A8A4289
:10220000FAD17047034B596A0A46986A596A914253
:10221000FAD1704700000B4000EB400C4FEA8C0CE9
:102220000CF1804C0CF5803C70B51E46DCF8043097
:10223000041FB3F5803F38BF4FF48033E4B238BF9A
:10224000CCF80430012C2ED94FF40065284B0CF546
:10225000405ECEF8005053F820E0BEF1000F17D1D9
:10226000DCF800E0012C8EEA421202F0E0020CF5EC
:10227000805ECEF800202BD94FF4006143F8206037
:102280004FF480330CF500521160CCF8043070BD6F
:102290005D69B5FBFEFE0EF1010E0EEB4E0EBEF1BA
:1022A000030EFCD2DCE70129CED103240CF5405308
:1022B0001C60DCF80830DB07FBD5DCF800300CF5DF
:1022C000805E83EA421303F0E003CEF80030084B4F
:1022D0000122DCF800404C4004F00304CEF800403A
:1022E00002FA01F1DCF808200A42FBD0C4E700BF83
:1022F000D83D0020014B53F820007047D83D002006
:1023000010B5029C8E464FEA043C4CEA034C1C4B31
:10231000B3FBF1F30168B2FBF3F4002920DB194AA7
:10232000194B904214BF4FF480424FF400421749BA
:102330001A6003F580531A608B6832EA0303FBD1FD
:10234000212200F540530433C0F800E084601A6095
:102350000268002AFCDA0822C0F80CC01A6010BD1E
:10236000036803F03F037345D9D18368C3F30B03BC
:10237000A342D4D1C36803F4EE236345CFD110BD8B
:10238000001BB70000800540002002400000024012
:10239000012300EB4000800000F1804000F5841034
:1023A00041600360704700BF0023DB8A002242E8DF
:1023B00000F2520201D4102118470421184700BF2F
:1023C000034AD2F82838002BFBD0BFF35F8F704749
:1023D00000000E400021044B044ABFF35F8F43F816
:1023E000041B9342F9D170470C080E402C080E4094
:1023F0004FF42A6C4FF48D70054A064B0649C2F81B
:1024000000C0D06019605368002BFCDA704700BF31
:102410000080044000A0044000B0FA00704700BFF4
:1024200008B50148FFF79CFA4C39002038B5054C37
:10243000054DAC4204D254F8043B9847AC42FAD361
:1024400038BD00BFEC3B0020283C00200648DFF8E8
:1024500028C0064B064A0749C0F800C01A608B68BE
:1024600032EA0303FBD170470020024000300240F3
:10247000F6FFF303000002407F3BEFEF044BDB6C01
:10248000B3F5004F03D14FF48022024BDA6470475A
:1024900000001150002011504FF0E022044BD2F800
:1024A000881D0B43C2F8883D10EE3004704700BF12
:1024B000030330006FF06041044B054A19609368D4
:1024C000DB4333F06043FAD1704700BF0030024075
:1024D0000000024010B545F25320FFF765FFBDE84C
:1024E000104003460420184710B545F25320FFF76B
:1024F0005BFFBDE81040034601201847FFF788BA8C
:10250000002370B52B4C82B0C4F88430FFF770FF05
:102510000122294BDA63636C012BFCD10321264A8B
:10252000244B11639C6B012CFCD10226052521460E
:102530000523224A22480096FFF7E2FE21462B4659
:10254000204A21480095FFF7DBFE00220420314697
:102550001E4BFFF761FE2146284600221C4BFFF769
:102560005BFE0022082011461A4BFFF755FE0022A1
:1025700009201146174BFFF74FFE00220620114697
:10258000134BFFF749FE0022114B07201146FFF7BE
:1025900043FE0420FFF7AEFE00240F4BA3FB0035E3
:1025A000AD0CE0B229460134FFF7F2FE062CF8D15B
:1025B00002B070BD0000014000300140002F68599A
:1025C00000000540008C864700800540001BB700D6
:1025D00080D1F008006CDC0283DE1B4300B9704739
:1025E00000F00AB910B5094A84B014684CB103462A
:1025F00000914FF0FF3203A90548A047012004B025
:1026000010BD00F03BF9204604B010BD083E00208C
:10261000DD25002000BEFDE708B5FFF7FBFF00BF8A
:1026200038B5064C064DFFF701FFAC4204D254F812
:10263000043B9847AC42FAD338BD00BF283C002089
:10264000283C0020036808461146184770B5054627
:102650000846697D82B000294FD0002A25DD037825
:1026600014460A2B064622D0012C4FF0000E0DD046
:102670003246012312F801CF1946BCF10A0F03F1CB
:10268000010320D09C42F5D1744505DD2B68A4EBF5
:102690000E0106EB0E009847311911F8013CA3F129
:1026A0000D03B3FA83F35B092B7502B070BD2B7D6C
:1026B000002BD9D102212B6813489847012CEBD06D
:1026C0004FF0010ED4E712F8010C0D28DAD08E4538
:1026D00006EB0E00A1EB0E0105DACDE900322B6806
:1026E0009847DDE90032CDE9003202212B68064827
:1026F0009847009B019A9E46C4E711462B6802B09A
:10270000BDE87040184700BFAC3900202DE9F04704
:1027100082B090461C460D460746FFF773FD4FF00A
:10272000FF3C6FF000462E4A821841F100039445A9
:1027300076EB03013CBF624633462A48FDF7A4FD11
:102740006B1C824640D00CB3274E284B1C68B4B19A
:10275000B8F1000F1CD1DFF89C8001E0246974B14E
:102760002368002BFAD0D8F800300BB19C42F5D189
:1027700020462A463946B0472469002CF0D1BAF1E8
:10278000000F26D1284602B0BDE8F087184EDCE7DE
:102790004FF00A09DFF85C8002E02469002CEED0DB
:1027A0002368002BF9D0D8F800300BB1A342F4D144
:1027B0002A4639462046B047012220460DF107013E
:1027C0008DF80790B047E8E7384600F0FAFA05467A
:1027D000B9E70448FDF78CFD284602B0BDE8F08754
:1027E00040420F00E43B00204D260020003E002028
:1027F00045260020043E0020F0B583B006468DF843
:102800000700FFF7FFFC4FF0FF356FF00044174A59
:10281000821841F10003954274EB03013CBF23464B
:102820002A461348FDF730FD124B07461C689CB141
:10283000114D01E024697CB12368002BFAD02B688C
:102840000BB19C42F6D1204601220DF10701FFF7A2
:10285000FDFE2469002CEFD117B9304603B0F0BD5E
:102860000348FDF745FD304603B0F0BD40420F0080
:10287000E43B0020003E0020043E002038B5044622
:1028800000F09FFA012305461A4620462946FFF725
:102890003DFF084B1C682CB163682BB19847246935
:1028A000002CF9D1284638BD2469002CF4D12846E3
:1028B00038BD00BF003E0020F0B503AF2DE9000F8A
:1028C00083B001910546D0E900489246B868994620
:1028D0000290D2B20121D0F800B020464FEA4B0658
:1028E0003346C0470BEBCB03204600210022C047F4
:1028F00020460C21CE223346C047E96809B1204664
:1029000088474FEA8B0620460A2100223346C047FB
:102910002046002101223346C0472A691AB14FFAE6
:102920008AF120469047019801213346C2B22046E1
:10293000C0475FFA89F2204604210023C0471FFAEE
:1029400089F62046320A05210023C0470298314605
:10295000AB688268204603B0BDE8000FBDE8F040D8
:102960001847F0B503AF2DE9000F83B00293154669
:10297000D7F808800E46D0E900498346D2B201213B
:10298000D8F800A020464FEA4A030093C847D8F879
:102990000430204600210022C8474FEA8A0320461F
:1029A000002101220193C847DBF8102012B169B25F
:1029B000204690470AEB4A03F2B220460121C8475D
:1029C000029E204604210023F2B2C847D8F80C30FA
:1029D00098F8145043B1B0B20521020A2046C84706
:1029E00020460C21EE2208E0009B20460C21EE221E
:1029F000C847B0B20521020A20460023C847D8F8CC
:102A000010000199DBF808304218B1B2204698470F
:102A100075B920460C21CE220023C847DBF80C10E4
:102A200031B1204603B0BDE8000FBDE8F0400847D3
:102A300003B0BDE8000FF0BD30B3F0B503AF2DE932
:102A4000000B88B0D7F808C0BCF1000F17D0DCE944
:102A500000E801F30701DCE9029602F30702DCE972
:102A60000445002DCDE9049602AE0694CDE902E8B6
:102A700018BF01258DF81C500096FFF772FF08B0B3
:102A8000BDE8000BBDE8F040704730B3F0B503AFD0
:102A90002DE9000B88B0D7F808C0BCF1000F17D0A3
:102AA000DCE900E801F30701DCE9029602F3070222
:102AB000DCE90445002DCDE9049602AE0694CDE98B
:102AC00002E818BF01258DF81C500096FFF7F4FEB0
:102AD00008B0BDE8000BBDE8F040704780B56F4618
:102AE0000120C5F2586080BD41B1B0F1004F08BF70
:102AF00011F1010204D090FBF1F070470020704703
:102B000080B56F4643F62030C2F2000000F028F98D
:102B1000F0B503AF2DE9000F83B000F3070E01F30A
:102B2000070ABEF1000FF146564648BFCEF1000934
:102B3000BAF1000F48BFCAF100064E4588BFB14642
:102B400043F6C83643F6D03543F6D834C2F2000611
:102B5000C2F20005C2F20004D6F800802D68D4F855
:102B600000B039B3BBF1000F24D043F6D436C2F223
:102B700000063668B1451DDC43F6B056C2F20006C9
:102B8000D6F800C05FEACC5614D50026B6EB0C6F21
:102B900010D081EA0C66B6F1FF3F0BDC43F6AC5572
:102BA000C2F2000555E8006F741C45E80046002E8F
:102BB000F8D15D46B9F1000F50D0B8F1A10F80F205
:102BC000A580019209EB89020124012D4FEA4212EE
:102BD000D8BF2546B2FBF5F6A025012E88BF3446A6
:102BE00044F22036C0F2010609FB06F6A2EB1642BB
:102BF00092B2520802EB164292B29609A02E38BF4A
:102C00009509B8EB921F43F6CC32C8BF4546C2F2D5
:102C10000002AC42C8BF2546126843F6A856AA4235
:102C2000B8BF1546EA17C2F200061202366842EA39
:102C30001562029316EB052B42F10004B0F1FF3F41
:102C40000FDD5BEA04006CD01BEBD47044F1000292
:102C50005FEA62024FEA3008009213E00020454626
:102C600045E05BEA040062D01BEBD47044F1000243
:102C700000235FEA62024FEA3000D0F1000863EB04
:102C8000020000900EEB8E00022200294FEAE17351
:102C90004FEA40195846214648BF6FF0010200F044
:102CA000ABF80AEB8A0242F38066530110EB423024
:102CB0005A464FEA062646EA13635941234600F076
:102CC0009BF800F307064FEAE970009A000240EA19
:102CD000196118EB092051415A46234600F08CF83F
:102CE00000F30700DDE90123C0B266F30F200AB14B
:102CF00041B21160B96813B140F30720186009B1FF
:102D0000A8B2086003B0BDE8000FF0BD43F6F420A0
:102D100043F61032C2F20000C2F200021C2100F0A1
:102D200032F843F6E420C2F2000000F006F843F661
:102D3000D420C2F2000000F000F880B56F4686B0E3
:102D40000146002001220490019243F67432039060
:102D50000420C2F2000202906846009200F026F8B9
:102D600080B56F4686B00146002001220490019292
:102D700043F6503203900420C2F2000202906846EB
:102D8000009200F013F880B56F4688B09446012297
:102D9000019206AA0023CDE90601009204226846AA
:102DA000614604930393029200F000F880B56F46E9
:102DB00084B0CDE9010101A80122ADF80C2000F09A
:102DC00025F880B56F460146007860B100200A18EA
:102DD000537853B1937853B1D37853B11279043007
:102DE000002AF4D180BD002080BD013080BD0230BA
:102DF00080BD033080BD000010B584B002AC0094EB
:102E000000F008F8029A039B04B010BD80B56F462D
:102E100010BFFDE7F0B503AF4DF8048D86B0D7F8CD
:102E200008800C461D460146B4F1FF3F13DD82EADF
:102E3000E57085EAE572B0EBE570234662EBE5727A
:102E4000CDE9000202A80A4600F036F8DDE90223C7
:102E5000DDE9040119E049424FF0000060EB040392
:102E6000002D02D4CDE9002503E05242A841CDE96E
:102E7000002002A80A4600F01FF8049800260599D1
:102E80004042DDE9022366EB0101C8E9000150423E
:102E90004FF0000666EB0301002D4FF0000548BF20
:102EA0000125002C48BF01266E4004BF194610467C
:102EB00006B05DF8048BF0BDF0B503AF2DE9000B53
:102EC000D7E902E8BEF1000F72D0B8F1000F6FD160
:102ED000002B00F0FC80734580F00781B3FA83F18A
:102EE000BEFA8EF6711A01F1200608BF1F26C6F140
:102EF000200508FA06F10EFA06F82EFA05F5294320
:102F0000B6F1200506F01F0658BF0EFA05F14FF086
:102F1000010505FA06FC4FF0000558BF4FF0000808
:102F200008E0224633464FEA181444EA01784FEA93
:102F30001C1C0909B2EB080463EB0106002E03D444
:102F400045EA0C0502D12DE014461E465FEA510306
:102F50004FEA3802A21A66EB0303002B04D445EAB9
:102F60005C05144602D11DE0224633464FEA980420
:102F700044EA8174141B63EB9106002E03D445EAE6
:102F80009C0502D10EE014461E464FEAD80242EAE2
:102F90004172A21A66EBD103002BC2D445EADC05CC
:102FA0001446C0D1B4FBFEF101FB1E46294392E05A
:102FB000B2EB0E064FF0000173EB08067CD3002B3A
:102FC0007AD0B3FA83F1B8FA88F6711A01F03F06A5
:102FD00001F01F01C6F1200408FA06F50EFA06FCFE
:102FE0002EFA04F42C43B6F1200558BF0EFA05F46E
:102FF0004FF0010505FA01F94FF0000158BF4FF0FD
:10300000000C08E032462B464FEA1C1646EA047CC8
:103010004FEA19192409B2EB0C0673EB040507D427
:1030200041EA0901B6EB0E0275EB080202D23AE062
:1030300016461D465FEA54034FEA3C02B21A75EB8E
:10304000030309D4B2EB0E0541EA590173EB0805FD
:1030500016461D4602D226E032462B464FEA9C0514
:1030600045EA8475561B63EB9405002D07D441EAAD
:103070009901B6EB0E0275EB080202D213E0164678
:103080001D464FEADC0242EA4472B21A65EBD403F1
:10309000002BB7D4B2EB0E0541EAD90173EB08055A
:1030A00016461D46B0D24FF0000CC0E9001CC0E926
:1030B0000265BDE8000BF0BD4FF0000C16461D4642
:1030C000C0E9001CC0E90265BDE8000BF0BDB2FB21
:1030D000FEF101FB1E264FF0000C0025C0E9001C8C
:1030E000C0E90265BDE8000BF0BD0DD1B2FBF3F104
:1030F000002501FB13264FF0010CC0E9001CC0E9BC
:103100000265BDE8000BF0BDB3FBFEFCBEF5803FE1
:103110000CFB1E351BD22904002541EA1241B1FBEC
:10312000FEF303FB0EF14CEA134CC1EB124192B2D9
:1031300042EA0141B1FBFEF202FB1E1642EA0341E4
:10314000C0E9001CC0E90265BDE8000BF0BDB2EBB0
:103150000E0175EB080108D200211646C0E9001CDB
:10316000C0E90265BDE8000BF0BD4FEAC87141EA55
:103170005E034FEACE794FF00048002108E0224676
:1031800035464FEA191444EA03794FEA18181B0927
:10319000B2EB090465EB0306002E03D441EA0801F3
:1031A00002D12DE014462E465FEA53054FEA39025C
:1031B000A21A66EB0505002D04D441EA5801144615
:1031C00002D11DE0224635464FEA990444EA837451
:1031D000141B65EB9306002E03D441EA980102D13B
:1031E0000EE014462E464FEAD90242EA4372A21A72
:1031F00066EBD305002DC2D441EAD8011446C0D1F4
:10320000B4FBFEF2002502FB1E461143C0E9001C80
:0C321000C0E90265BDE8000BF0BD000045
:10321C0056507932253400200000000000000000D8
:10322C0008DF70470BDF704700DF7047FCB50446C2
:10323C000D464FF07F06C6F100074FF008032046FD
:10324C00B042C8BF3046B842B8BF38462946B14232
:10325C00C8BF3146B942B8BF394603B403DF03BC1B
:10326C00241A6D1A54EA050201D0013BE7D1FCBDCA
:10327C0004DF704701DF704702DF70472DE9F04132
:10328C0004460D4616461F461D4A136852681C44D8
:10329C0015441E441744DDF81880FFF7C5FF40465F
:1032AC00FFF7EAFF20462946FFF7C0FFA6EB040410
:1032BC00A7EB0505260001D5C4F100062F0001D5AA
:1032CC00C5F10007BE42A8BF3746002F15D007F145
:1032DC007E074FF07F0697FBF6F8B8F1000F0CD085
:1032EC0094FBF8F095FBF8F1A4EB0004A5EB0105B9
:1032FC00A8F10108FFF7BCFFEFE7BDE8F081000083
:10330C0000F30720084B1B68002B08BF0323DFF8D2
:10331C001CC09CF800C0BCF1000F08BF4FF0640C3F
:10332C0043EA0C2310DF704754F107203EF40720CA
:10333C002DE9F04704460D46164682B06F46B84656
:10334C00002E07DA4FF02D0088F8000008F1010874
:10335C00C6F1000642F20F70864200DD06464FF0C1
:10336C0000094FF47A7096FBF0F100FB01F0A6EB2C
:10337C000006002907D001F1300188F8001008F18F
:10338C0001084FF001094FF0640096FBF0F100FBCF
:10339C0001F0A6EB0006B9F1000F01D1002907D00E
:1033AC0001F1300188F8001008F101084FF0010913
:1033BC004FF00A0096FBF0F100FB01F0A6EB0006C3
:1033CC00B9F1000F01D1002905D001F1300188F8C5
:1033DC00001008F1010806F1300188F8001008F11E
:1033EC0001084FF0000088F80000204629463A46B4
:1033FC00FFF788FF02B0BDE8F0874FEA40010144B7
:10340C0001F104014FEAD101012901D24FF0010170
:10341C0059480160704700BFFEF796F9F0B5574860
:10342C0057494FF0000240F8042B8842FBD3554912
:10343C004FF00000087050494FF0030008605249EB
:10344C004FF03F00086051494FF000000860FFF753
:10345C0011FF4C484FF0000101706FF0360001B4C1
:10346C004FF0140001B403E054455354800000BFE6
:10347C00474801B404BC02BC01BCFFF743FF6FF02A
:10348C00040001B44FF0140001B44FF07B0001B400
:10349C0004BC02BC01BCFFF74BFF4FF0500001B461
:1034AC004FF0000001B44FF03C0001B46FF0380055
:1034BC0001B44FF0130001B408BC04BC02BC01BC45
:1034CC00FFF7DCFE01B04FF0500001B46FF0380094
:1034DC0001B44FF0130001B46FF0220001B46FF08F
:1034EC00300001B408BC04BC02BC01BCFFF7C6FE32
:1034FC0001B04FF0500001B46FF0220001B46FF036
:10350C00300001B44FF0230001B46FF0300001B46F
:10351C0008BC04BC02BC01BCFFF7B0FE01B04FF00C
:10352C00500001B44FF0230001B46FF0300001B42F
:10353C004FF0390001B44FF0130001B408BC04BCC7
:10354C0002BC01BCFFF79AFE01B04FF0500001B471
:10355C004FF0390001B44FF0130001B44FF00000EC
:10356C0001B44FF03C0001B408BC04BC02BC01BC6B
:10357C00FFF784FE01B06AE754F1072000F0072042
:10358C0060F407203EF40720FCF2072008F3072024
:04359C007434002063
:1035A000000C0C00000000000000000C06060606DF
:1035B0000F0612120F121209150F0C0C090C09122A
:1035C000000F180C15120F1212121212090F0C0F05
:1035D000151518120C0C090F0C0F0C000000000040
:1035E0000C00180018001800180018001800180027
:1035F0001800180024002A00300036003C004B0060
:1036000051006300750084009600A800B100C60058
:10361000D500E100ED00F60002010B011D011D01C6
:103620002C01440150016501770186019801AA012E
:10363000BC01CE01E001E901F801040213022802F5
:103640003D025502670273027F0288029702A302BD
:10365000B20200000102060202020102000202019F
:103660000101050201060103050203060102010230
:10367000020501000302040301020102010001002E
:10368000030204030101000202000100000204061B
:10369000010000020400020406020006020000010C
:1036A00002000202060100060204060204030200F0
:1036B00003020000020400010006020406020400E6
:1036C00002000001040302010301000602000302DC
:1036D00004030104060204000104060200060200BD
:1036E00003020403020400020000010406020006B3
:1036F00002000002040002040302000301000602AB
:103700000406020200010000020400020406020096
:103710000602000001000302040301040002040683
:103720000200060200030204030102010202020178
:103730000204020205010204020205010201020163
:103740000001030602000302030001000402040456
:103750000100020204020101060204030201000149
:10376000000602040602040402020301020102022E
:103770000201000002020602040001000302040329
:103780000100000200060203060203030200030216
:103790000303020300020000010406020006020007
:1037A00000020400010000020006020306020405F4
:1037B00002040102030002000001040002000002F2
:1037C00000060204060100030203030100000200D8
:1037D00006020406010003020303010406020006B8
:1037E00002000002040002040302020301000002BE
:1037F00000060104000204060100030204030101A3
:103800000002030001020002020601010602030693
:103810000100010201000204000204060101060287
:103820000306010000020006010003020406010075
:10383000030204000100060200000204000100006F
:103840000200060202030204060204000100000254
:103850000006020400020406010000020400020443
:103860000602000602000001000002000602030634
:103870000204050204040203030200030100000223
:103880000400020406020006020000010301020413
:1038900000010000020006020306020405020404FF
:1038A00002030302000302040001040602000602F0
:1038B00000030204030204000200000100060204E7
:1038C00006010206020200010006020000020400D6
:1038D00002040601000602020002040601000602BC
:1038E00001000202030203000204060100000204B8
:1038F000060100060204000100060202030204069B
:103900000102030202000100060204060200000296
:10391000040000000A2A2A2A2050414E4943202A46
:103920002A2A0A000A000000486172647761726501
:1039300020616C61726D20256420616C7265616428
:103940007920636C61696D65640000004861726490
:10395000206173736572740052656C6561736500F4
:10396000322E322E300000006F6C696D65785F7208
:1039700070323335305F78786C00000064726177A4
:103980005F6C696E65000000417567203138203238
:103990003032360006005250D3F0754258390020BC
:1039A00006005250BBFF3CB6683900200D0A2F5567
:1039B000736572732F64616E69656C2F70726F6AC4
:1039C000656374732F766563747265782D707365A3
:1039D00075646F2D707974686F6E2F6964652F65DB
:1039E0006C656374726F6E2F7265736F7572636549
:1039F000732F766563747265782D647261772F73A7
:103A000072632F72616D702E7273002F5573657221
:103A1000732F64616E69656C2F2E72757374757087
:103A20002F746F6F6C636861696E732F737461625A
:103A30006C652D616172636836342D6170706C65E0
:103A40002D64617277696E2F6C69622F7275737461
:103A50006C69622F7372632F727573742F6C696255
:103A6000726172792F636F72652F7372632F636D4A
:103A7000702E7273002F55736572732F64616E69B7
:103A8000656C2F70726F6A656374732F76656374EB
:103A90007265782D70736575646F2D707974686FB9
:103AA0006E2F6964652F656C656374726F6E2F721B
:103AB00065736F75726365732F766563747265786D
:103AC0002D647261772F7372632F6C69622E72732B
:103AD00000000000AE3900205C000000C4000000BF
:103AE00033000000AE3900205C000000C40000007C
:103AF00016000000617373657274696F6E206661F1
:103B0000696C65643A206D696E203C3D206D61787A
:103B10000B3A002069000000440400000900000086
:103B2000753A00205B00000039000000050000002D
:103B3000617474656D707420746F20646976696453
:103B4000652077697468206F766572666C6F7700A0
:103B5000303B00201F000000617474656D7074209C
:103B6000746F20646976696465206279207A657271
:0C3B70006F000000583B0020190000000E
:083B7C003CEDFF7F0100000099
:103B84009439002024010020A039002030010020B5
:043B94003C010020D0
:103B98000C000000A0000000CC8100000100000023
:103BA800960000003F100000000000000000000028
:103BB800000000000000000000000000283C002079
:103BC8001F000000A00000007F000000200000008F
:103BD8001E000000000000000000000000000000BF
:103BE80000000000D52400204D2400207D24002062
:103BF80001250020B5240020D5230020FD24002025
:103C0800C1230020111B0020851E00201D24002038
:103C1800E924002099240020011A0020291A0020F4
:04000005200001795D
:00000001FF
