:020000042000DA
:1000000000200820A50100201B0100201D01002068
:100010001101002011010020110100201101002018
:10002000190100201901002019010020791B00206E
:1000300011010020190100202101002023010020CE
:1000400011010020110100201101002011010020E8
:1000500011010020110100201101002011010020D8
:1000600011010020110100201101002011010020C8
:1000700011010020110100201101002011010020B8
:1000800011010020110100201101002011010020A8
:100090001101002011010020110100201101002098
:1000A0001101002011010020110100201101002088
:1000B0001101002011010020110100201101002078
:1000C0001101002011010020110100201101002068
:1000D0001101002011010020110100201101002058
:1000E0001101002011010020110100201101002048
:1000F0001101002011010020110100201101002038
:100100001101002011010020110100201101002027
:10011000EFF30580103800BE00BE00BE00BE00BE7A
:1001200000BE00BE06005250ABB3605388300020C2
:1001300006005250861C0302A430002006005250D4
:100140005422A29DB4300020F2EB8871DC300020F4
:10015000F0300020D001002090A31AE7D3DEFFFF8B
:10016000420121100302000000000020FF030000F4
:1001700000000000793512AB20485FF44041016077
:1001800030EE10F704D440EC800740EC810740BF0C
:10019000002080F30A881A481A49086006C881F3CB
:1001A000088810474FF05040006810B14FF0000031
:1001B000F2E71549154A002000E001C19142FCD147
:1001C00013498847134988471349884700BEFDE70C
:1001D000F0300020F03000206831002000000820BE
:1001E000000008200000082000100820001008204F
:1001F00000100820000000007047000088ED00E0BB
:100200000000002008ED00E0683100205CB4002010
:1002100041280020751B0020392800204FF0504154
:100220002DE9F0411F460B68044616460025984606
:1002300008E0C3E88F5F82F310883046394602F049
:100240005BF8E8B92368EFF3108272B6D3E8CF0FFA
:1002500001210028FAD1C3E8401F0028F6D1BFF3DE
:100260005F8F94F9041023680029E2DA002184F8F2
:100270000480C3E88F1F82F310880120BDE8F0815D
:100280000020BDE8F08100BF10B50168EFF3108ECB
:1002900072B6D1E8CFCF0124BCF1000FF9D1C1E88B
:1002A0004C4FBCF1000FF4D1BFF35F8F90F904C045
:1002B0000468BCF1000F10DB0021C4E88F1F8EF32F
:1002C00010884FF0504494F90040644501D108462D
:1002D00010BDBDE81040FFF7A1BF4FF050421268BB
:1002E00000230271C4E88F3F8EF31088012010BDF7
:1002F0000368EFF3108272B6D3E8CFCF0121BCF1CF
:10030000000FF9D1C3E84C1FBCF1000FF4D1BFF3CB
:100310005F8F4FF0FF0C0023016880F804C0C1E834
:100320008F3F82F3108840BF704700BF4FF0E0233B
:100330004FF0FF3200211961C3F88021C3F88022F9
:10034000C3F88421C3F88422C3F88821C3F8882223
:10035000C3F88C21C3F88C22704700BF30B500234E
:100360004FF0010C05240C490C4ADFF834E00CFA7C
:1003700003F030F0A04503F1010306D010EA0E0FA0
:100380000CBF62206A2010600C60202B02F1040276
:1003900001F10801EBD130BD04800240048003402C
:1003A0000000C0A84FF050434FF0007C47F230519E
:1003B0000748084AC3F818C018629A635A68002AA6
:1003C000FCDA5A68002AFCDB0139F7D1704700BF1C
:1003D000FFFF3F0DFFFF3F0F30B54FF05042044687
:1003E0005368002BFCDB4FF050425368002BFCDAC3
:1003F0004FF05040136983F0E26383F4406323F0CD
:10040000784323F4400393624368002BFCDB00290C
:100410003AD04FF0000C4FF050434FF0806501F19F
:10042000FF3E54F8040BC0F30B21000D5A68002A5C
:10043000FCDA1A694A40C2F30B029A621D625A68DA
:10044000002AFCDB0CF1010C48B1411E5A68002A5D
:10045000FCDA5A68002AFCDB0139F7D28444BEF189
:10046000010EDED24FF050425368002BFCDA4FF001
:10047000806393611369604683F0806323F078435F
:1004800023F44003936230BD8C46EBE750B14FF04C
:100490005043411E5A68002AFCDA5A68002AFCDBE5
:1004A0000139F7D2704700BF4FF05042000200F40C
:1004B0007060C9B2084340F044705368002BFCDA06
:1004C0004FF050411369434023F0784323F4400335
:1004D00093624B68002BFCDB4FF050425368002BBB
:1004E000FCDA1169044B81F0007104480B409362FF
:1004F000036802330360704700FF3F0730B40020F9
:100500004FF05042FF21000200F4706300B543F049
:10051000E26011645368002BFCDA4FF0504113691C
:10052000DFF848C0434003EA0C0CC2F828C04B680F
:10053000002BFCDB4FF0504358680028FCDA4FF0EA
:10054000FF0E4FF05042196981F0007C07490CEA18
:1005500001019962C3F838E05368002BFCDB044AC0
:10056000C0B213680233136000BD00BF00FF3F0735
:1005700030B40020184A1368B3F5005F2AD210B5D2
:10058000164903F1010E91F800C0BEF5005F2CF092
:10059000070140EA010040F0010411494FEA042438
:1005A000C2F800E041F8234040F0800011D0000282
:1005B00040F4000041F82E0003F1020EBEF5005F8A
:1005C000C2F800E005D003334FEA0C20136041F875
:1005D0002E0010BD704700BF6CB30020F530002026
:1005E0006C3300204FF0810CCC2110B50024314B2E
:1005F000314A83F800C0314B3148197013680470D8
:10060000B3F5005F33D24FF48034581C2D49B0F558
:10061000005F106041F8234029D09C1CDFF8BCC06B
:10062000B4F5005F146041F820C020D04FF4014CB5
:10063000D81CB0F5005F106041F824C017D01C1D15
:10064000DFF89CC0B4F5005F146041F820C00ED004
:10065000581DDFF890C0B0F5005F106041F824C06D
:1006600005D04FF436240633136041F82040164B72
:10067000196861B1002011681860B1F5005F06D2F9
:100680004FF480300F4B4C1C146043F821000220C3
:10069000FFF770FF0020FFF76DFF0420FFF76AFFF0
:1006A00000230A4C0A480B490B4A236003600B6085
:1006B000136010BDF53000206CB30020F430002032
:1006C00059B400206C330020F8300020A8B300207B
:1006D000ACB3002090B3002094B3002000FF0300CF
:1006E000009F020000CC0C00014B1860704700BF57
:1006F00070B3002038B50025064C2560FFF772FF67
:1007000005482168FFF768FE2268044B2560C3E9AD
:10071000002038BD6CB300206C33002034B40020BE
:100720004FF00043012010B40349044C044A2360F5
:100730000860136010BC7047F8300020A8B3002098
:10074000ACB3002030B5DFF88CC01F48DCF80020C7
:100750000168DFF884E00A439EF8003001D19A076F
:1007600028D41A4C2268B2F5005F24D218490968CF
:10077000890801F12D0503F0FD01090243F0020390
:1007800041EA05518EF80030DFF850E041F4402195
:100790004EF82210511CB1F5005F21600FD01B02F2
:1007A00043F440234EF82130002302322260CCF87B
:1007B0000030036030BD43F002038EF800300023A8
:1007C000CCF80030036030BD94B300206CB300203F
:1007D000F030002090B30020F43000206C33002073
:1007E0002A4B80F307001A682949904208604CD0D0
:1007F00010B5DFF8B0C018609CF8003025495FFAEA
:1008000080FE73450A68244B3AD08CF800E04FF024
:10081000000CB2F5005FC3F800C030D21F4C0002DC
:10082000531C40F480300B6044F82200B3F5005FA5
:1008300025D21B4A03F1010E92F800C017480CF0B4
:10084000F80242F005042402BEF5005FC1F800E0A2
:1008500040F8234042F0840211D0120242F4000218
:1008600040F82E2003F1020EBEF5005FC1F800E053
:1008700005D003334FEA0C220B6040F82E2010BD48
:100880001C68002CC1D11346D0E77047ACB30020E0
:10089000B0B300206CB30020F83000206C3300208F
:1008A000F530002059B40020F0B50446504B514FAC
:1008B000514E1D68514B3A681868336822440B4406
:1008C00083B03A603360D0B184EAE473A3EBE4739D
:1008D0003F2B14DC81EAE172A2EBE17209E0202DEA
:1008E0000DD93F2B4FEA44044FEA41014FEA550529
:1008F00005DC3F2A4FEA43034FEA4202EFDD404A5C
:10090000404E10683378884263D05FFA81FC9C4582
:100910003D4F116032D000233C4A86F800C0106879
:100920003B60B0F5005F1FD363460020CDE9003285
:10093000FFF720FEDDE90032E1B2994210684ED0A7
:100940000023B0F5005F31703B601CD3304A137850
:1009500063F07F0313702F4BD3E9041201312A4453
:10096000C3E9041203B0F0BD0B029BB22A4943F461
:10097000803341F8203001301060D5E73A68002A12
:10098000C9D1224AD1E72402234BA4B2411C44F42A
:100990000104116043F820401D4CB1F5005F23783D
:1009A00022D203F07F0643F080031B4823702C05FE
:1009B00044EA062440F821404C1CB4F5005F146062
:1009C000C9D01B02023143F40003116040F8243007
:1009D000C1E70E4AE1B299420B4F1068B0D13B68B3
:1009E000002BADD10146D7E763F07F032370B2E758
:1009F000F030002090B3002094B3002070B30020AA
:100A0000A8B3002059B40020F83000206CB30020B7
:100A1000F530002034B400206C330020F0B50446DB
:100A20005F4B604F604E1D68604B3A6818683368D2
:100A300022440B4483B03A603360D0B184EAE4735B
:100A4000A3EBE4733F2B14DC81EAE172A2EBE172C9
:100A500009E0202D0DD93F2B4FEA44044FEA410114
:100A60004FEA550505DC3F2A4FEA43034FEA4202AD
:100A7000EFDD4F4A4F4E10683378884200F0818096
:100A80005FFA81FC9C454C4F11606FD000234B4AAC
:100A900086F800C010683B60B0F5005F5CD3634629
:100AA0000020CDE90032FFF765FDDDE90032E1B25B
:100AB000994210686BD00023B0F5005F31703B6045
:100AC00059D224023E4BA4B2411C44F401041160EB
:100AD00043F820403B4EB1F5005F33785CD23A4892
:100AE0004F1C047803F07F00DFF8D4C0000240F40C
:100AF0004010B7F5005F4CF82100176044F020006B
:100B0000A5F1030E48D0000240EA0E5040F4402008
:100B10004CF82700881C43F08003B0F5005F337069
:100B2000106010D01B0243F080734CF82030CB1CB7
:100B3000B3F5005F136006D02402043144F440246E
:100B400011604CF82340214B99685A6901312A44BD
:100B500099605A6103B0F0BD0B029BB2184943F48F
:100B6000803341F820300130106098E73A68002A5D
:100B70008CD1124A94E7134A137863F07F03137001
:100B8000E1E70E4AE1B299420B4F106893D13B68FE
:100B9000002B90D101469DE763F07F033370D2E7CD
:100BA000F030002090B3002094B3002070B30020F8
:100BB000A8B3002059B40020F83000206CB3002006
:100BC0006C330020F5300020F430002034B40020D5
:100BD000054A064B12681B68801AC91A50EA0103BD
:100BE00001D0FFF761BE704790B3002094B300209E
:100BF000002310B5204A214CC2E9043393602360DE
:100C0000FFF7F0FC1E4B1F4A1B6811688B4212D085
:100C10001D4913600A78D8B28242DFF878C026D026
:100C2000087000212268CCF80010B2F5005F14D3E0
:100C30000420FFF79FFC154922680B78B2F5005F8E
:100C400043F002030B7007D211491B02501C43F4FE
:100C50004023206041F8223010BD1B020C499BB29A
:100C6000501C43F48033206041F82230E0E7DCF888
:100C70000020002AD4D1DBE734B400206CB300207C
:100C8000B0B30020ACB3002059B40020F4300020F1
:100C90006C330020F830002038B52B4C2B4D2168E8
:100CA0002B78B1F5005F24D323F022032B700025AD
:100CB000274A284B284815601D60FFF78DFB47F237
:100CC0002F5C264B26499A6860459A610A685860ED
:100CD00002F101020A601A69DA61226825601A606D
:100CE0005A691A6223D9DA680132DA601D4B18603A
:100CF00038BD03F0DF0203F0DD0312022B70164D46
:100D000042F44022481C45F82120174AB0F5005F04
:100D10001268206015D092082D321B0243EA02535C
:100D2000023143F44023216045F82030BFE7C0F58D
:100D3000EA403030FFF7AAFB47F23050094B186009
:100D400038BD0146B3E700BF6CB30020F43000208B
:100D500090B3002094B300206C33002034B4002002
:100D600078B3002074B30020F0300020014B1868E5
:100D7000704700BF74B3002070B5440044F0810197
:100D80000020FFF791FB00210120FFF78DFB44F0CD
:100D900080010020FFF788FBA020FFF777FB44F0DD
:100DA00081010020FFF780FB08268025002409E050
:100DB0006D08013E44EA050316D0DCB2214601204D
:100DC000FFF772FB0A20FFF761FB0020FFF798FB9B
:100DD0008306EDD46C4021460120FFF765FB6D08CA
:100DE000013E44EA0503E8D130468121FFF75CFB70
:100DF00060B270BD38B5440044F081010020FFF7B7
:100E000053FB00210120FFF74FFB44F0800100203D
:100E1000FFF74AFBA020FFF739FB44F081010020D7
:100E2000FFF742FB0020FFF76BFB10F0200416D009
:100E30004021012520240120FFF736FB0A20FFF77F
:100E400025FB0020FFF75CFB00F0200300209C4204
:100E500018BF05468121FFF727FB284638BDC02172
:100E60004FF0FF35E7E700BF014B1860704700BF48
:100E70006033002010B50E210120FFF715FB9921EA
:100E80000020FFF711FB81210020FFF70DFB00215F
:100E90000320FFF709FB89210020FFF705FB012054
:100EA000FFF72EFB044681210020FFF7FDFAFF210A
:100EB0000320FFF7F9FA81210020FFF7F5FA204619
:100EC00010BD00BF38B50F4B186888B10020FFF780
:100ED00053FF05460120FFF74FFF044624048121FC
:100EE000002004F47F04FFF7DFFA44EA056038BD10
:100EF000FFF780FFC0EBC0150120FFF77BFFC0EBC1
:100F0000C014EBE76033002010B50C4600F00F0171
:100F10000120FFF7C9FA99210020FFF7C5FA8121C6
:100F20000020FFF7C1FAE1B20120FFF7BDFA9121DD
:100F30000020FFF7B9FA81210020FFF7B5FABDE8DC
:100F4000104081210020FFF7AFBA00BF10B500F0BC
:100F50000F010120FFF7A8FA99210020FFF7A4FA5A
:100F600081210020FFF7A0FA00210320FFF79CFA5F
:100F700089210020FFF798FA0120FFF7C1FA044603
:100F800081210020FFF790FAFF210320FFF78CFA60
:100F900081210020FFF788FA204610BD00234FF082
:100FA0005041214802E00133834239D04A68002A87
:100FB000F9DB4FF050411C4802E0013383422FD04F
:100FC0004A68002AF9DA194A30B5526880244FF08D
:100FD00050411546164802E00133834222D84A6840
:100FE000002AF9DB4FF0504CDFF844E002E0013317
:100FF000734517D8DCF80420002AF8DA621E14467C
:10100000EDD10A4B0B4A5B685B1B03EB4303180AE9
:10101000B3F5206F36BF962303461846136030BDE4
:1010200000207047002030BD01C2EB0B001000E033
:1010300000C2EB0BFC300020F0B54FF0E02501269C
:10104000D5F8FC3DDFF844E043F08073C5F8FC3D83
:10105000DEF800304FF050423343CEF800304FF00E
:10106000804C05276223064C06480749E367C0F811
:10107000F470C2F820C0C2F838C00E60F0BD00BFE6
:10108000008003400080024098B30020001000E080
:10109000244B1B68002B44D02DE9F0434FF0170C74
:1010A0004FF0504E4FF080441F4B42EA0022D3F8DD
:1010B000008042EA014608EB88031C4AC8EB48104E
:1010C000DF001D0108EB8000A2FB0737A2FB0535FE
:1010D000A2FB0020164A7F096D09400926FA0CF38D
:1010E00013F0010F0CBFB946A9465168CEF818405D
:1010F00053685B1A9945FBD8CEF8204053685B1AB9
:101100009842FBD8BCF1010CE8D24FF4967303FB74
:1011100008F85168064A53685B1A9845FBD8BDE841
:10112000F083704798B30020FC3000201F85EB51FE
:10113000001000E0013804281DD8DFE800F0080D99
:1011400012170300002208211820FFF7A1BF002179
:1011500018220846FFF79CBF002220201146FFF707
:1011600097BF002210211820FFF792BF0022102104
:101170001046FFF78DBF002211461046FFF788BFCB
:101180002DE9F04F9A46894603EB430385B043F3BC
:101190001E03BAF1000F07460E99A9EB030965DD9E
:1011A000CAEBCA0303930029D8BF6421531E0E91D2
:1011B0001946FF32029211F8013F5A0648D0A3F1B6
:1011C0006102192A47D8203B2B4A203BD65CCEB37C
:1011D0002A4A019132F81320294BD34602EB030827
:1011E000FFF7B0FA0E98FFF7FBFA002500244FF046
:1011F000000A07E00AF1030AFFF710FCB24508F104
:1012000003081DDA2046294698F8014098F8025054
:101210000BFB04F40BFB05F598F8002007EB6404C6
:1012200009EB6505012AA4EB0000A5EB0101E1D162
:101230000AF1030AFFF738FBB24508F10308E1DBC6
:10124000DA460199039B07EB6307029B8B42B2D1FD
:1012500005B0BDE8F08FA3F120023A2AB4D9039B70
:1012600007EB6307029B8B42A5D1F1E715234FF0F3
:10127000030A039397E700BFC42C0020002D002031
:10128000782D002070B10A4B1A6862B9094A4FF0F4
:10129000010C00211060C3F800C0074A074B08305A
:1012A000106019607047034A11688142EFD1F9E775
:1012B00084B300207CB300208CB3002080B30020D6
:1012C00010B500240B4B0C4A214608201C6014600A
:1012D000FFF71AFE21460920FFF716FE21460A20D5
:1012E000FFF712FE3F21054B07201970BDE81040A3
:1012F000FFF70ABE8CB3002084B300200031002029
:1013000050B14FF0010C0022044B04301860044926
:10131000044BC1F800C01A60704700BFA4B300209E
:101320009CB30020A0B30020F8B54B4B1A683AB329
:101330004A4A156825B34A4A1168002957D04949D5
:101340000A68002A5EDC6A781746002A63D0FF2A02
:1013500077D02C4605EB4206A078E178072849D0E3
:101360000234FFF7D1FDA642F6D17E1EF6B2043557
:101370003A4905EB46020A6015F81630394A1360FF
:10138000394C23680BB3394B1D68F5B1384A1368E3
:10139000002B1BDC6B781F46002B36D02C4605EB50
:1013A0004306A078E178072813D00234FFF7ACFD9C
:1013B000A642F6D17B1EDBB204352C4905EB430275
:1013C0000A6015F813302A4A1360F8BD013B136018
:1013D000F8BD284A01F024011378023423F02403D5
:1013E00019431170FFF790FDB442DAD1E2E701230F
:1013F0001360C5E71F4B02341970FFF785FDB44237
:10140000AAD1B2E7013A0A60BAE719460A20FFF703
:101410007BFD2760F8BD1A60104B114608201A604A
:10142000FFF772FD39460920FFF76EFD39460A20A5
:10143000FFF76AFD3F210F4B07201970FFF764FD8E
:101440009EE70D4B1B685A6899189B5C034A116014
:10145000044A136094E700BF84B300208CB30020DB
:1014600088B3002080B300209CB30020A4B30020E8
:10147000A0B30020003100207CB3002008B5FEF7A7
:1014800055FFFEF76BFFFFF7D7FD0120FFF752FE78
:10149000FFF784FD18B90220FFF74CFEFEE703209A
:1014A000FFF748FEFEF77EFFFFF724F90120FFF764
:1014B0001BF90120FFF7D8FCFFF702FF00F07AF9D3
:1014C000FFF796FBBDE808400420FFF733BE00BFDE
:1014D000024600B58369516813F8023C006885B084
:1014E0001A2B1ED8DFE803F04D26218176180E7BDB
:1014F0009D1D1DAAA4726863571D1D1D1D5286984F
:101500001D1D8B0000210820FFF7FEFC0021092093
:10151000FFF7FAFC00210A2005B05DF804EBFFF7A5
:10152000F3BC0023136005B000BD05B05DF804EB0B
:10153000FFF756B9FFF7B0FBFFF79CFC434B187061
:10154000FFF7C0FC424B1860FFF7EAF8FFF70EFC0C
:10155000404B1A68104447F22F52904218600BD942
:10156000A0F5EA4030381860FFF7DEFE47F22F5250
:10157000384B18689042F3D805B05DF804EBFFF7DC
:1015800037BB05B05DF804EBFFF7DCB805B05DF8DC
:1015900004EBFFF777BED2E90223C3F3072CCDF8A3
:1015A00000C0DBB249B240B2FFF7EAFDBBE705B0CD
:1015B0005DF804EBFFF70CBB244B19780B039BB2CF
:1015C00043EA111343F47F631360ACE7204B1B68BD
:1015D0001360A8E705B05DF804EBFFF71FBA1B4BDB
:1015E0001B7883F0FF0313609DE705B05DF804EB03
:1015F000FFF75AB905B05DF804EBFFF761BE9268DA
:10160000002A90D04FF05F0C012349B240B2CDF8D0
:1016100000C0FFF7B5FD86E705B05DF804EBFFF706
:101620006FBE00F00F0005B05DF804EBFEF73CBFA5
:101630000392FFF78BFC039A106074E700F00F0031
:101640000392FEF75DFF039A10606CE758B4002028
:10165000683300206433002070B504463A483B4BA1
:10166000026842F008020260257801E0013B02D0E6
:1016700002685205FAD43448DFF8D4E045600268C5
:101680000023324DCEF8702001E0AB4255D0026805
:101690000133D603F9D42C4ADFF8B0C09368E61CB6
:1016A00014F8015F294B01E0013B02D010684005AE
:1016B000FAD40023556001E0634534D0106801334B
:1016C000C503F9D4B4429368EAD100251E4A1F4EDF
:1016D0004C1E1E4B01E0013B02D010684005FAD4BD
:1016E0000023556001E0B3420BD010680133C00302
:1016F000F9D490688C4204F1010360700DD01C464F
:10170000E7E7DEF86C008C4200F10100CEF86C00D7
:10171000906804F101036070F1D10B4A136823F063
:101720000803136070BDDEF86C30B44203F10103AE
:10173000CEF86C309368B3D1C7E7DEF86C30013374
:10174000CEF86C30A7E700BF00000D4040420F000C
:10175000B8B300201449154B0A6842F008020A6029
:10176000007801E0013B02D00A685205FAD40E4924
:10177000DFF83CC048600A6800230C48CCF87020B1
:1017800001E083420AD00A680133D203F9D4064B40
:101790009A681A6822F008021A607047DCF86C3008
:1017A0000133CCF86C30F2E700000D4040420F00EE
:1017B000B8B300200023F0B5934D944987B02B6057
:1017C0000B6A6B624B6AAB628B6AEB620B682B63D2
:1017D000AB6AB3F5805F16D04FF0885301221868CA
:1017E00001F182516861586801F5CA21A8619868C1
:1017F00001F23121E8611046DB682B626A676A609A
:10180000296007B0F0BD0927662699249F20804BE8
:10181000D3F8C02022F48072C3F8C020D3F8C020CF
:1018200042F04002C3F8C020D3F8C02022F080026A
:10183000C3F8C020A3F58033C3F87C718DF8046031
:101840008DF8084005900A68724B42F001020A6068
:1018500001E0013B02D00A689407FAD401A8FFF71F
:1018600079FF02A8FFF776FF684B1A6822F008029A
:101870001A601A6822F001021A6047F2305300BF62
:10188000013BFCD16149ADF80C300B6843F001031A
:101890000B60604B01E0013B02D00A689007FAD46C
:1018A00003A905A8FFF7D8FE58490B6823F00803E1
:1018B0000B600B6823F001030B609DF80C300D2BBF
:1018C0006B6370D00B6843F001030B60514B01E078
:1018D000013B02D00A689207FAD44C494D4B0A6882
:1018E00042F008020A6001E0013B02D00A68570595
:1018F000FAD4494B45494B60464B01E0013B02D0CD
:101900000A689607FAD447F23053404A116821F02A
:1019100008011160116821F008011160116821F0BF
:101920000101116000BF013BFCD13849394B0A6805
:1019300042F001020A6001E0013B02D00A6894070C
:10194000FAD401A8FFF706FF02A8FFF703FF47F24A
:1019500030532E4A116821F008011160116821F0FE
:101960000101116000BF013BFCD12849ADF80C30EA
:101970000A68284B42F001020A6001E0013B02D0F4
:101980000A689007FAD403A905A8FFF765FE1F4B64
:101990001A6822F008021A601A6822F001021A601E
:1019A0009DF80C30AB6300271C4E184C236816F8CA
:1019B000012B23F07F5343EA82532360236843F0D3
:1019C00001032360134B01E0013B02D02268910721
:1019D000FAD401A8FFF7BEFE02A8FFF7BBFE47F24C
:1019E0003053226822F008022260226822F00102AD
:1019F000226000BF013BFCD1ADF81030236843F0FA
:101A000001032360034B0DE0B8B3002000000D403C
:101A10000080034040420F00F5000A0038300020EB
:101A2000013B02D022689207FAD404A905A8FFF767
:101A300013FE236805EB870223F008032360236865
:101A400023F00103236016F8011CBDF81030D165A6
:101A50005BBA05EB870201379BB2042FD364A5D193
:101A60004FF050424FF4004105244FF4FA633B48D5
:101A7000C0F87C41D163D16100BF013BFCD14FF084
:101A800050414FF400404FF4FA638A68C2F3C03209
:101A9000EA63486200BF013BFCD14FF050424FF473
:101AA00000444FF4FA6391682D4EC1F3C0312964AC
:101AB000D6F8C00020F04C0141F04001C6F8C0103B
:101AC000D463546200BF013BFCD14FF050424FF44D
:101AD000004144F62063516400BF013BFCD14FF04C
:101AE00050424FF400444FF4FA639168C1F3C0319F
:101AF0006964D463D46100BF013BFCD14FF0504214
:101B00004FF4004144F62063516400BF013BFCD117
:101B10004FF050424FF4004C09279368DFF840E043
:101B20000E4EC3F3C033AB64CEF8C000C2F844C05D
:101B3000C6F87C719DF80C300124EB60A3F10D0315
:101B4000B3FA83F307499DF80D205B092A61AB6066
:101B50006C602960A86807B0F0BD00BF008002403B
:101B60000080034031525350684610B5FFF7B0FC77
:101B700010BD000001F038B8FFF7F6BF0FB400B594
:101B8000084883B000F08AFF049B3BB105A91846C2
:101B9000019100F037FE044800F080FF012000F0C2
:101BA00049FE00BF3C3000204C30002070B5164686
:101BB000EFF3108472B6DFF848E0DEE8CF2F0123A0
:101BC000002AFAD1CEE8423F002AF6D1BFF35F8F58
:101BD000012301F0070CCA0803FA0CF310F802C045
:101BE0001CEA030508D14CEA030C00F802C0CEE859
:101BF0008F5F84F3108870BD3046FFF7BFFF00BFD2
:101C0000F3320020044A1078431CDBB2182B28BFA3
:101C100010231370704700BF013100204FF0E02205
:101C2000936843F000539360704700BF0021044B5A
:101C300003F12002C3E88F1F01339342FAD17047AA
:101C4000E83200204FF0E0234FF08032C3F8002448
:101C5000C3F80424C3F80824C3F80C24C3F81024E0
:101C6000C3F81424C3F81824C3F81C24C3F8202490
:101C7000C3F82424C3F82824C3F82C24C3F8302440
:101C800062B67047012300F01F029340400941B142
:101C9000800000F1604000F56140C0F880310360D1
:101CA0007047024A203042F82030704700E100E0DF
:101CB00010B582B0EFF3108472B6164BD3E8CFCFD5
:101CC0000122BCF1000FF9D1C3E84C2FBCF1000F89
:101CD000F4D1BFF35F8F104A10309268DFF83CC038
:101CE00052F82020624508D0914206D0CDE900018B
:101CF00000F0A6FC0199074B0098074A926842F849
:101D00002010BFF35F8F0022C3E88F2F84F3108869
:101D100002B010BDF132002000ED00E01101002002
:101D2000014B0B4403607047E832002070B5104C43
:101D3000104DAC420ED2FF26236863B1FFF762FF5D
:101D400001462046FFF7ECFFA680BFF35F8F083403
:101D5000AC42F1D370BDFFF755FF01462046FFF7B7
:101D6000DFFF2671BFF35F8F0834AC42E4D370BD50
:101D70001C3100202C3100200D4B1A68EFF310812C
:101D800072B6D2E8CFCF0120BCF1000FF9D1C2E882
:101D90004C0FBCF1000FF4D1BFF35F8F00221B6822
:101DA000C3E88F2F81F3108840BF002000217047C7
:101DB000B4B30020000000002DE9F04F2DED028BA0
:101DC00085B0EFF30583DBB2103B9A0818BF012200
:101DD0004FF0010103F0030B18BFA94CA94B08BF3A
:101DE000A94C0BEB820253F8225001FA0BF204F5D6
:101DF00041539FEDA18B02925A602FE0AB881904EA
:101E000040F19480AB79002B40F0DE80B5F908609A
:101E1000002EC0F21C816B6906EB460603EBC6037D
:101E2000D3E90267B7F1FF3F08BFB6F1FF3F0ED01D
:101E300004EB8B01A36A0A69D21AF31A934205D301
:101E40000123226A03FA0BF3134200D10E612046EC
:101E500000F0E0FAB042B941C0F2F980B5F908608B
:101E6000029B002EE363C9DBD5F8149006EB460A0B
:101E700009EBCA07BB682046D7F80C80019300F035
:101E8000C9FA019B984271EB0801B7DBB8F1000F6A
:101E9000C0F2C080D7E904317C4A934200F0F88058
:101EA0007A88B5F9080092B242EA004098470246A3
:101EB0000B4652EA030100F0AD80002B80F2CD808A
:101EC0000199B1EB020E68EB030839F93A30C7E922
:101ED00002E8002B92DB686903EB430200EBC202CD
:101EE000D2E90271BE4578EB010C4FEA430285DB73
:101EF000AC462CF8083F06E003EB430100EBC101C0
:101F00005A00D1E90271BE4578EB01011A4405DBA4
:101F100030F9323000EBC20C002BEDDA29F83A3000
:101F2000ACF80060AB8819043FF56CAF2B69EFF398
:101F3000108272B6D3E8CF0F01210028FAD1C3E88E
:101F4000401F0028F6D1BFF35F8F4FF6FF76A888B9
:101F50000023296900B2AE80C1E88F3F82F3108868
:101F60009842FFF64FAF0746A1466E6905F1080893
:101F7000B5F9083007EB470E002BC44606EBCE023E
:101F800015DBD2E90240AA46019704E036F9353064
:101F90009446002B09DB03EB430506EBC502D2E9AF
:101FA0000271BC4270EB0101F0DA5546019FACF8BA
:101FB000007036F93E7026F83E30002FD8DAAB7943
:101FC0004C46002B3FF422AF0023AB71B5F90860FB
:101FD000721C33463BD0686905F1080E03E08E465B
:101FE0005A1C3FF415AF03EB430200EBC2014F88CC
:101FF0009C463F0430F93230F1D5664581ED028BC5
:10200000EED0AEF800302989664620F83210A5F8E7
:1020100008C0E5E739F83A302B812B69EFF31082DD
:1020200072B6D3E8CF0F01210028FAD1C3E8401FD0
:102030000028F6D1BFF35F8F6B88296929F83A3001
:1020400000236E80C1E88F3F82F31088D6E640BF40
:1020500005B0BDEC028BBDE8F08F204603930192E2
:1020600000F0D8F9019A039B10EB020E43EB010834
:102070002BE700BFAFF30080FFFFFFFFFFFFFFFF75
:1020800000800B404033002000000B40B91D0020B1
:1020900008460B69039198470028BBD00399D1E902
:1020A000002306E738B5384B1C692CB1BDE8384031
:1020B0000A213648FFF734BE0321354800F098F96D
:1020C000334D314BDD60FFF79DFD324A4FF0504EEE
:1020D000024403202C4B4FF00F0C18701A61DEF8ED
:1020E00000204FF6FF715A705A69A3F802C014839A
:1020F0004FF00204A2F848404FF00404A2F87840E0
:102100004FF00504A2F890404FF00604A2F8A84052
:102110004FF00704A2F8C0404FF00904A2F8F040C5
:102120004FF00A04A2F808414FF00B04A2F8204136
:102130004FF00C04A2F838414FF0010414864FF020
:102140000804A2F8D840144C4FF00D0E4FF00E0CBE
:102150009C6008249980A2F850E1A2F868C1A2F816
:10216000600011800D4A2C620D49D360FFF7A0FD7D
:1021700001210320FFF786FD0A4B0A211C64034856
:10218000BDE83840FFF7CCBD04310020B4B30020D7
:1021900000000B40E8320020FFFF10004033002019
:1021A000B91D002000200B40F0B516461F460269FD
:1021B0000346EFF3108072B6D2E8CF4F0121002C16
:1021C000FAD1C2E8441F002CF6D1BFF35F8FB3F9F8
:1021D00002101D69002945DBD3F814E001EB410230
:1021E0003EF832400EEBC20C5C800024C5E88F4FF5
:1021F00080F3108805983546CCF8100006983E46C6
:10220000CCF81400BCF80200CCE902560130C0F34F
:102210000E00012838BF0120ACF8020040EA01405E
:10222000D3F810C0EFF3108572B6DCE8CF7F01263B
:10223000002FFAD1CCE8476F002FF6D1BFF35F8FA4
:10224000B3F804C02EF832C099801A69C2E88F4FE3
:1022500085F3108801211C78DA68A14002F501534A
:102260005960F0BD0023C5E88F3F80F310884FF020
:10227000FF30F0BD03464089B0EB214F3ADD58698D
:102280000A1402EB420210B5D3F810C000EBC200F2
:10229000EFF3108E72B6DCE8CF4F0122002CFAD19A
:1022A000CCE8442F002CF6D1BFF35F8F428889B26F
:1022B00092B28A4207D000221B69C3E88F2F8EF3A7
:1022C0001088002010BD6FEA42426FEA52424280FD
:1022D0000121002218699971C0E88F2F8EF31088B0
:1022E00093F800C0DA68084602F5015301FA0CF1D0
:1022F000596010BD00207047EFF30582D2B282B161
:10230000384B5A6A8A4202D200221046704714BFE4
:10231000012200229B6A834228BF42F0010210463C
:10232000704770B584B003922F4A0646D36815787B
:1023300018460C46029300F06DF8029B05F1040C60
:1023400053F82CC0039AACEB000C301A64EB01017B
:10235000604571F100010FDB20BF224B596AA14299
:1023600007D314BF012200229B6AB34228BF42F068
:102370000102104604B070BD029200F053F886428C
:1023800064EB01010029029A1BDB18492346CDE9C1
:10239000001215483246FFF707FF011E11DD114BF1
:1023A0005A6AA2421CD39B6AB34217D30E48FFF766
:1023B00061FF0C4B5A6AA242D3D20022104604B0ED
:1023C00070BD084B5A6AA242F7D3121B18BF0122F4
:1023D0009B6AB34228BF42F00102CAE7A242E5D19C
:1023E00020BFE3E700000B4004310020791D0020EE
:1023F00010B4054B054C064AA04214BF1846581CA1
:1024000010BCFFF7D3BB00BF0833002000800B4097
:10241000503000200346416A0A46986A596A8A4247
:10242000FAD17047034B596A0A46986A596A914231
:10243000FAD1704700000B4000EB400C4FEA8C0CC7
:102440000CF1804C0CF5803C70B51E46DCF8043075
:10245000041FB3F5803F38BF4FF48033E4B238BF78
:10246000CCF80430012C2ED94FF40065284B0CF524
:10247000405ECEF8005053F820E0BEF1000F17D1B7
:10248000DCF800E0012C8EEA421202F0E0020CF5CA
:10249000805ECEF800202BD94FF4006143F8206015
:1024A0004FF480330CF500521160CCF8043070BD4D
:1024B0005D69B5FBFEFE0EF1010E0EEB4E0EBEF198
:1024C000030EFCD2DCE70129CED103240CF54053E6
:1024D0001C60DCF80830DB07FBD5DCF800300CF5BD
:1024E000805E83EA421303F0E003CEF80030084B2D
:1024F0000122DCF800404C4004F00304CEF8004018
:1025000002FA01F1DCF808200A42FBD0C4E700BF60
:102510000C330020014B53F8200070470C3300208F
:1025200010B5029C8E464FEA043C4CEA034C1C4B0F
:10253000B3FBF1F30168B2FBF3F4002920DB194A85
:10254000194B904214BF4FF480424FF40042174998
:102550001A6003F580531A608B6832EA0303FBD1DB
:10256000212200F540530433C0F800E084601A6073
:102570000268002AFCDA0822C0F80CC01A6010BDFC
:10258000036803F03F037345D9D18368C3F30B039A
:10259000A342D4D1C36803F4EE236345CFD110BD69
:1025A000001BB700008005400020024000000240F0
:1025B000012300EB4000800000F1804000F5841012
:1025C00041600360704700BF0023DB8A002242E8BD
:1025D00000F2520201D4102118470421184700BF0D
:1025E000034AD2F82838002BFBD0BFF35F8F704727
:1025F00000000E400021044B044ABFF35F8F43F8F4
:10260000041B9342F9D170470C080E402C080E4071
:102610004FF42A6C4FF48D70054A064B0649C2F8F8
:1026200000C0D06019605368002BFCDA704700BF0F
:102630000080044000A0044000B0FA00704700BFD2
:1026400008B50148FFF79AFA7430002038B5054CF8
:10265000054DAC4204D254F8043B9847AC42FAD33F
:1026600038BD00BF2C310020683100200648DFF85B
:1026700028C0064B064A0749C0F800C01A608B689C
:1026800032EA0303FBD170470020024000300240D1
:10269000F6FFF303000002407F3BEFEF044BDB6CDF
:1026A000B3F5004F03D14FF48022024BDA64704738
:1026B00000001150002011504FF0E022044BD2F8DE
:1026C000881D0B43C2F8883D10EE3004704700BFF0
:1026D000030330006FF06041044B054A19609368B2
:1026E000DB4333F06043FAD1704700BF0030024053
:1026F0000000024010B545F25320FFF765FFBDE82A
:10270000104003460420184710B545F25320FFF748
:102710005BFFBDE81040034601201847FFF786BA6B
:10272000002370B52B4C82B0C4F88430FFF770FFE3
:102730000122294BDA63636C012BFCD10321264A69
:10274000244B11639C6B012CFCD1022605252146EC
:102750000523224A22480096FFF7E2FE21462B4637
:10276000204A21480095FFF7DBFE00220420314675
:102770001E4BFFF761FE2146284600221C4BFFF747
:102780005BFE0022082011461A4BFFF755FE00227F
:1027900009201146174BFFF74FFE00220620114675
:1027A000134BFFF749FE0022114B07201146FFF79C
:1027B00043FE0420FFF7AEFE00240F4BA3FB0035C1
:1027C000AD0CE0B229460134FFF7F2FE062CF8D139
:1027D00002B070BD0000014000300140002F685978
:1027E00000000540008C864700800540001BB700B4
:1027F00080D1F008006CDC0283DE1B4300B9704717
:1028000000F00AB910B5094A84B014684CB1034607
:1028100000914FF0FF3203A90548A047012004B002
:1028200010BD00F03BF9204604B010BD3C33002041
:10283000FD27002000BEFDE708B5FFF7FBFF00BF46
:1028400038B5064C064DFFF701FFAC4204D254F8F0
:10285000043B9847AC42FAD338BD00BF6831002032
:1028600068310020036808461146184770B50546D0
:102870000846697D82B000294FD0002A25DD037803
:1028800014460A2B064622D0012C4FF0000E0DD024
:102890003246012312F801CF1946BCF10A0F03F1A9
:1028A000010320D09C42F5D1744505DD2B68A4EBD3
:1028B0000E0106EB0E009847311911F8013CA3F107
:1028C0000D03B3FA83F35B092B7502B070BD2B7D4A
:1028D000002BD9D102212B6813489847012CEBD04B
:1028E0004FF0010ED4E712F8010C0D28DAD08E4516
:1028F00006EB0E00A1EB0E0105DACDE900322B68E4
:102900009847DDE90032CDE9003202212B68064804
:102910009847009B019A9E46C4E711462B6802B077
:10292000BDE87040184700BFD83000202DE9F047BF
:1029300082B090461C460D460746FFF773FD4FF0E8
:10294000FF3C6FF000462E4A821841F10003944587
:1029500076EB03013CBF624633462A48FDF794FC00
:102960006B1C824640D00CB3274E284B1C68B4B178
:10297000B8F1000F1CD1DFF89C8001E0246974B12C
:102980002368002BFAD0D8F800300BB19C42F5D167
:1029900020462A463946B0472469002CF0D1BAF1C6
:1029A000000F26D1284602B0BDE8F087184EDCE7BC
:1029B0004FF00A09DFF85C8002E02469002CEED0B9
:1029C0002368002BF9D0D8F800300BB1A342F4D122
:1029D0002A4639462046B047012220460DF107011C
:1029E0008DF80790B047E8E7384600F075F80546DF
:1029F000B9E70448FDF77CFC284602B0BDE8F08743
:102A000040420F00243100206D2800203433002084
:102A10006528002038330020F0B583B006468DF8D5
:102A20000700FFF7FFFC4FF0FF356FF00044174A37
:102A3000821841F10003954274EB03013CBF234629
:102A40002A461348FDF720FC124B07461C689CB130
:102A5000114D01E024697CB12368002BFAD02B686A
:102A60000BB19C42F6D1204601220DF10701FFF780
:102A7000FDFE2469002CEFD117B9304603B0F0BD3C
:102A80000348FDF735FC304603B0F0BD40420F006F
:102A900024310020343300203833002038B5044678
:102AA00000F01AF8012305461A4620462946FFF78A
:102AB0003DFF084B1C682CB163682BB19847246913
:102AC000002CF9D1284638BD2469002CF4D12846C1
:102AD00038BD00BF3433002020F0030110F00300A4
:102AE000C0F1000051F8043B00F1040C4FEACC0C9B
:102AF0006FF000021CBF22FA0CF213434FF0010CDE
:102B00004CEA0C2C4CEA0C4CA3EB0C0222EA03021C
:102B100012EACC1204BF51F8043B0430F4D0C2F1E5
:102B2000000102EA0102B2FA82F2C2F11F0200EBD6
:042B3000D200704718
:102B340056507932E92B002000000000000000000C
:102B440008DF70470BDF704700DF7047FCB50446B1
:102B54000D464FF07F06C6F100074FF008032046EC
:102B6400B042C8BF3046B842B8BF38462946B14221
:102B7400C8BF3146B942B8BF394603B403DF03BC0A
:102B8400241A6D1A54EA050201D0013BE7D1FCBDB9
:102B940004DF704701DF704702DF7047084B1B6892
:102BA400002B08BF0323DFF81CC09CF800C0BCF155
:102BB400000F08BF4FF0640C43EA0C2310DF70478A
:102BC40054F107203EF407204FEA4001014401F18B
:102BD40004014FEAD101012901D24FF0010130482B
:102BE40001607047FEF748FCF0B52E482E494FF0BF
:102BF400000240F8042B8842FBD32C494FF000001C
:102C0400087027494FF00300086029494FF03F003E
:102C1400086028494FF0000008604FF0640000F09D
:102C24007F0022490870FFF7B7FFFFF7B3FF1F4883
:102C34004FF0000101704FF0640000F07F001B4969
:102C44000870FFF7A9FF6FF03B0001B44FF01400C8
:102C540001B407E048454C4C4F20574F524C448038
:102C6400000000BF144801B404BC02BC01BCFFF75F
:102C740095FF6FF0450001B46FF0090001B407E05F
:102C840044454255472043415254204F4B80000055
:102C94000A4801B404BC02BC01BCFFF77FFFC4E7CF
:102CA40054F1072000F0072060F407203EF40720C9
:102CB400FCF2072008F30720582C0020842C002065
:102CC400000C0C00000000000000000C06060606C4
:102CD4000F0612120F121209150F0C0C090C09120F
:102CE400000F180C15120F1212121212090F0C0FEA
:102CF400151518120C0C090F0C0F0C000000000025
:102D04000C0018001800180018001800180018000B
:102D14001800180024002A00300036003C004B0044
:102D240051006300750084009600A800B100C6003D
:102D3400D500E100ED00F60002010B011D011D01AB
:102D44002C01440150016501770186019801AA0113
:102D5400BC01CE01E001E901F801040213022802DA
:102D64003D025502670273027F0288029702A302A2
:102D7400B202000001020602020201020002020184
:102D84000101050201060103050203060102010215
:102D94000205010003020403010201020100010013
:102DA4000302040301010002020001000002040600
:102DB40001000002040002040602000602000001F1
:102DC40002000202060100060204060204030200D5
:102DD40003020000020400010006020406020400CB
:102DE40002000001040302010301000602000302C1
:102DF40004030104060204000104060200060200A2
:102E04000302040302040002000001040602000697
:102E1400020000020400020403020003010006028F
:102E2400040602020001000002040002040602007B
:102E34000602000001000302040301040002040668
:102E4400020006020003020403010201020202015D
:102E54000204020205010204020205010201020148
:102E6400000103060200030203000100040204043B
:102E7400010002020402010106020403020100012E
:102E84000006020406020404020203010201020213
:102E9400020100000202060204000100030204030E
:102EA40001000002000602030602030302000302FB
:102EB40003030203000200000104060200060200EC
:102EC40000020400010000020006020306020405D9
:102ED40002040102030002000001040002000002D7
:102EE40000060204060100030203030100000200BD
:102EF400060204060100030203030104060200069D
:102F040002000002040002040302020301000002A2
:102F14000006010400020406010003020403010187
:102F24000002030001020002020601010602030678
:102F3400010001020100020400020406010106026C
:102F4400030601000002000601000302040601005A
:102F54000302040001000602000002040001000054
:102F64000200060202030204060204000100000239
:102F74000006020400020406010000020400020428
:102F84000602000602000001000002000602030619
:102F94000204050204040203030200030100000208
:102FA40004000204060200060200000103010204F8
:102FB40000010000020006020306020405020404E4
:102FC40002030302000302040001040602000602D5
:102FD40000030204030204000200000100060204CC
:102FE40006010206020200010006020000020400BB
:102FF40002040601000602020002040601000602A1
:10300400010002020302030002040601000002049C
:10301400060100060204000100060202030204067F
:10302400010203020200010006020406020000027B
:1030340004000000060C1E780A2A2A2A2050414E59
:103044004943202A2A2A0A000A00000048617264BF
:103054007761726520616C61726D20256420616CFA
:10306400726561647920636C61696D656400000058
:1030740048617264206173736572740052656C6593
:1030840061736500322E322E300000006F6C696D62
:1030940065785F7270323335305F78786C00000089
:1030A400766563747265785F68656C6C6F000000A8
:1030B40041756720313220323032360006005250DA
:1030C400D3F075428030002006005250BBFF3CB65E
:0830D400903000200D0A0000FD
:1030DC00C030002024010020CC3000203001002022
:0430EC003C01002083
:1030F00080000000CC81000001000000960000006C
:103100003F10000000000000000000000000000070
:1031100000000000000000006831002000000000F6
:10312000000000000000000000000000F526002064
:103130006D2600209D26002021270020D526002076
:10314000F52500201D270020E12500202D1D002051
:10315000A52000203D26002009270020B9260020B8
:083160001D1C0020451C00208D
:04000005200001795D
:00000001FF
